{
  "contractName": "Owner",
  "abi": [
    {
      "inputs": [],
      "stateMutability": "nonpayable",
      "type": "constructor"
    },
    {
      "anonymous": false,
      "inputs": [
        {
          "indexed": false,
          "internalType": "address",
          "name": "member",
          "type": "address"
        }
      ],
      "name": "AddMenber",
      "type": "event"
    },
    {
      "anonymous": false,
      "inputs": [
        {
          "indexed": false,
          "internalType": "address",
          "name": "member",
          "type": "address"
        },
        {
          "indexed": false,
          "internalType": "uint256",
          "name": "amount",
          "type": "uint256"
        }
      ],
      "name": "PaymentReceived",
      "type": "event"
    },
    {
      "inputs": [
        {
          "internalType": "address",
          "name": "",
          "type": "address"
        }
      ],
      "name": "balances",
      "outputs": [
        {
          "internalType": "uint256",
          "name": "",
          "type": "uint256"
        }
      ],
      "stateMutability": "view",
      "type": "function",
      "constant": true
    },
    {
      "inputs": [
        {
          "internalType": "address",
          "name": "",
          "type": "address"
        }
      ],
      "name": "members",
      "outputs": [
        {
          "internalType": "bool",
          "name": "",
          "type": "bool"
        }
      ],
      "stateMutability": "view",
      "type": "function",
      "constant": true
    },
    {
      "inputs": [
        {
          "internalType": "uint256",
          "name": "",
          "type": "uint256"
        }
      ],
      "name": "membersContract",
      "outputs": [
        {
          "internalType": "address",
          "name": "",
          "type": "address"
        }
      ],
      "stateMutability": "view",
      "type": "function",
      "constant": true
    },
    {
      "inputs": [],
      "name": "owner",
      "outputs": [
        {
          "internalType": "address",
          "name": "",
          "type": "address"
        }
      ],
      "stateMutability": "view",
      "type": "function",
      "constant": true
    },
    {
      "inputs": [],
      "name": "getOwner",
      "outputs": [
        {
          "internalType": "address",
          "name": "",
          "type": "address"
        }
      ],
      "stateMutability": "view",
      "type": "function",
      "constant": true
    },
    {
      "inputs": [],
      "name": "getMember",
      "outputs": [
        {
          "internalType": "address[]",
          "name": "",
          "type": "address[]"
        }
      ],
      "stateMutability": "view",
      "type": "function",
      "constant": true
    },
    {
      "inputs": [],
      "name": "getBalance",
      "outputs": [
        {
          "internalType": "uint256",
          "name": "",
          "type": "uint256"
        }
      ],
      "stateMutability": "view",
      "type": "function",
      "constant": true
    },
    {
      "inputs": [
        {
          "internalType": "address",
          "name": "user",
          "type": "address"
        }
      ],
      "name": "addMember",
      "outputs": [],
      "stateMutability": "nonpayable",
      "type": "function"
    },
    {
      "inputs": [
        {
          "internalType": "address",
          "name": "members",
          "type": "address"
        },
        {
          "internalType": "uint256",
          "name": "amount",
          "type": "uint256"
        }
      ],
      "name": "sendMoney",
      "outputs": [],
      "stateMutability": "nonpayable",
      "type": "function"
    },
    {
      "inputs": [],
      "name": "payFee",
      "outputs": [],
      "stateMutability": "payable",
      "type": "function",
      "payable": true
    }
  ],
  "bytecode": "0x608060405234801561001057600080fd5b50336000806101000a81548173ffffffffffffffffffffffffffffffffffffffff021916908373ffffffffffffffffffffffffffffffffffffffff160217905550610af8806100606000396000f3fe6080604052600436106100915760003560e01c8063893d20e811610059578063893d20e8146101705780638da5cb5b1461019b578063ca6d56dc146101c6578063ee4ae2c9146101ef578063fa9157a81461021857610091565b80630274c0941461009657806308ae4b0c146100c157806312065fe0146100fe57806327e235e3146101295780632961025214610166575b600080fd5b3480156100a257600080fd5b506100ab610255565b6040516100b89190610754565b60405180910390f35b3480156100cd57600080fd5b506100e860048036038101906100e391906107a7565b6102e3565b6040516100f591906107ef565b60405180910390f35b34801561010a57600080fd5b50610113610303565b6040516101209190610823565b60405180910390f35b34801561013557600080fd5b50610150600480360381019061014b91906107a7565b61030b565b60405161015d9190610823565b60405180910390f35b61016e610323565b005b34801561017c57600080fd5b5061018561040b565b604051610192919061084d565b60405180910390f35b3480156101a757600080fd5b506101b0610434565b6040516101bd919061084d565b60405180910390f35b3480156101d257600080fd5b506101ed60048036038101906101e891906107a7565b610458565b005b3480156101fb57600080fd5b5061021660048036038101906102119190610894565b61054c565b005b34801561022457600080fd5b5061023f600480360381019061023a91906108d4565b610625565b60405161024c919061084d565b60405180910390f35b606060028054806020026020016040519081016040528092919081815260200182805480156102d957602002820191906000526020600020905b8160009054906101000a900473ffffffffffffffffffffffffffffffffffffffff1673ffffffffffffffffffffffffffffffffffffffff168152602001906001019080831161028f575b5050505050905090565b60016020528060005260406000206000915054906101000a900460ff1681565b600047905090565b60036020528060005260406000206000915090505481565b60018060003373ffffffffffffffffffffffffffffffffffffffff1673ffffffffffffffffffffffffffffffffffffffff16815260200190815260200160002060006101000a81548160ff02191690831515021790555034600360003373ffffffffffffffffffffffffffffffffffffffff1673ffffffffffffffffffffffffffffffffffffffff16815260200190815260200160002060008282546103c99190610930565b925050819055507f6ef95f06320e7a25a04a175ca677b7052bdd97131872c2192525a629f51be7703334604051610401929190610964565b60405180910390a1565b60008060009054906101000a900473ffffffffffffffffffffffffffffffffffffffff16905090565b60008054906101000a900473ffffffffffffffffffffffffffffffffffffffff1681565b60008054906101000a900473ffffffffffffffffffffffffffffffffffffffff1673ffffffffffffffffffffffffffffffffffffffff163373ffffffffffffffffffffffffffffffffffffffff16146104e6576040517f08c379a00000000000000000000000000000000000000000000000000000000081526004016104dd90610a10565b60405180910390fd5b6002819080600181540180825580915050600190039060005260206000200160009091909190916101000a81548173ffffffffffffffffffffffffffffffffffffffff021916908373ffffffffffffffffffffffffffffffffffffffff16021790555050565b60008054906101000a900473ffffffffffffffffffffffffffffffffffffffff1673ffffffffffffffffffffffffffffffffffffffff163373ffffffffffffffffffffffffffffffffffffffff16146105da576040517f08c379a00000000000000000000000000000000000000000000000000000000081526004016105d190610aa2565b60405180910390fd5b8173ffffffffffffffffffffffffffffffffffffffff166108fc829081150290604051600060405180830381858888f19350505050158015610620573d6000803e3d6000fd5b505050565b6002818154811061063557600080fd5b906000526020600020016000915054906101000a900473ffffffffffffffffffffffffffffffffffffffff1681565b600081519050919050565b600082825260208201905092915050565b6000819050602082019050919050565b600073ffffffffffffffffffffffffffffffffffffffff82169050919050565b60006106bb82610690565b9050919050565b6106cb816106b0565b82525050565b60006106dd83836106c2565b60208301905092915050565b6000602082019050919050565b600061070182610664565b61070b818561066f565b935061071683610680565b8060005b8381101561074757815161072e88826106d1565b9750610739836106e9565b92505060018101905061071a565b5085935050505092915050565b6000602082019050818103600083015261076e81846106f6565b905092915050565b600080fd5b610784816106b0565b811461078f57600080fd5b50565b6000813590506107a18161077b565b92915050565b6000602082840312156107bd576107bc610776565b5b60006107cb84828501610792565b91505092915050565b60008115159050919050565b6107e9816107d4565b82525050565b600060208201905061080460008301846107e0565b92915050565b6000819050919050565b61081d8161080a565b82525050565b60006020820190506108386000830184610814565b92915050565b610847816106b0565b82525050565b6000602082019050610862600083018461083e565b92915050565b6108718161080a565b811461087c57600080fd5b50565b60008135905061088e81610868565b92915050565b600080604083850312156108ab576108aa610776565b5b60006108b985828601610792565b92505060206108ca8582860161087f565b9150509250929050565b6000602082840312156108ea576108e9610776565b5b60006108f88482850161087f565b91505092915050565b7f4e487b7100000000000000000000000000000000000000000000000000000000600052601160045260246000fd5b600061093b8261080a565b91506109468361080a565b925082820190508082111561095e5761095d610901565b5b92915050565b6000604082019050610979600083018561083e565b6109866020830184610814565b9392505050565b600082825260208201905092915050565b7f536f6d656e7465206f20646f6e6f20636f6e73656775652061646963696f6e6160008201527f72206d656d62726f730000000000000000000000000000000000000000000000602082015250565b60006109fa60298361098d565b9150610a058261099e565b604082019050919050565b60006020820190508181036000830152610a29816109ed565b9050919050565b7f536f206f2061646d696e6973747261646f7220636f6e736567756520656e766960008201527f6172207265637572736f73000000000000000000000000000000000000000000602082015250565b6000610a8c602b8361098d565b9150610a9782610a30565b604082019050919050565b60006020820190508181036000830152610abb81610a7f565b905091905056fea264697066735822122017e57ad1dcadde2253293ba15b79fc4d9f9e401792cbd82d305c170539a2606664736f6c63430008130033",
  "immutableReferences": {},
  "source": "// SPDX-License-Identifier: MIT\r\npragma solidity >=0.7.0 <0.9.0;\r\n// import \"hardhat/console.sol\";\r\ncontract Owner {\r\n    address public owner;\r\n    event AddMenber (address member);\r\n    event PaymentReceived(address member, uint amount);\r\n    // modificador para verificar se quem chamou  o proprietrio\r\n    modifier isOwner() {\r\n        require(msg.sender == owner, \"Nao eh o dono\");\r\n        _;\r\n    }\r\n    struct Member{\r\n        uint cash; //Dinheiro do user\r\n        address client; //Cliente do contrato\r\n    }\r\n    // Endereo das carteiras\r\n    mapping (address => bool) public members;\r\n    address [] public membersContract ;\r\n    // Valor disponivel no contrato\r\n    mapping(address => uint256) public balances;\r\n    constructor() {\r\n        owner = msg.sender;\r\n    }\r\n    // Funes do contrato\r\n    function getOwner() external view returns (address) {\r\n        return owner;\r\n    }\r\n    function getMember() external view returns (address[] memory) {\r\n        return membersContract;\r\n    }\r\n    // Funo que retorna o valor do fundo\r\n    function getBalance() external view returns (uint) {\r\n        return address(this).balance;\r\n    }\r\n    function addMember(address user) public {\r\n        require(msg.sender == owner, \"Somente o dono consegue adicionar membros\");\r\n        membersContract.push(user);\r\n    }\r\n    // Funo que permite que s o dono envie dinheiro\r\n    function sendMoney(address members, uint amount) public{\r\n        require(msg.sender == owner, \"So o administrador consegue enviar recursos\");\r\n        payable(members).transfer(amount);\r\n    }\r\n    // Funo que permita com que qualquer pessoa paga o contrato, mas pra isso o adm tem que adicionar essa pessoa primeiro\r\n    function payFee() public payable {\r\n        members[msg.sender] = true;\r\n        balances[msg.sender] += msg.value;\r\n        emit PaymentReceived(msg.sender, msg.value);\r\n    }\r\n}",
  "sourcePath": "C:\\Users\\Inteli\\Desktop\\PROJETOS\\M5\\ProjetoCoover\\deploy\\contracts\\contractCore.sol",
  "compiler": {
    "name": "solc",
    "version": "0.8.19+commit.7dd6d404.Emscripten.clang"
  },
  "schemaVersion": "3.4.13",
  "updatedAt": "2023-03-09T16:12:03.856Z",
  "networkType": "ethereum",
  "devdoc": {
    "kind": "dev",
    "methods": {},
    "version": 1
  },
  "userdoc": {
    "kind": "user",
    "methods": {},
    "version": 1
  }
}