{
  "contractName": "Owner",
  "abi": [
    {
      "inputs": [],
      "stateMutability": "nonpayable",
      "type": "constructor"
    },
    {
      "anonymous": false,
      "inputs": [
        {
          "indexed": false,
          "internalType": "address",
          "name": "member",
          "type": "address"
        }
      ],
      "name": "AddMember",
      "type": "event"
    },
    {
      "anonymous": false,
      "inputs": [
        {
          "indexed": false,
          "internalType": "uint256",
          "name": "finalValue",
          "type": "uint256"
        }
      ],
      "name": "FinalAmount",
      "type": "event"
    },
    {
      "anonymous": false,
      "inputs": [
        {
          "indexed": false,
          "internalType": "address",
          "name": "member",
          "type": "address"
        },
        {
          "indexed": false,
          "internalType": "uint256",
          "name": "amount",
          "type": "uint256"
        }
      ],
      "name": "PaymentReceived",
      "type": "event"
    },
    {
      "anonymous": false,
      "inputs": [
        {
          "indexed": false,
          "internalType": "address",
          "name": "_buyer",
          "type": "address"
        },
        {
          "indexed": false,
          "internalType": "uint256",
          "name": "_amount",
          "type": "uint256"
        }
      ],
      "name": "Purchase",
      "type": "event"
    },
    {
      "stateMutability": "payable",
      "type": "fallback",
      "payable": true
    },
    {
      "inputs": [
        {
          "internalType": "address",
          "name": "",
          "type": "address"
        }
      ],
      "name": "activeMembers",
      "outputs": [
        {
          "internalType": "bool",
          "name": "",
          "type": "bool"
        }
      ],
      "stateMutability": "view",
      "type": "function",
      "constant": true
    },
    {
      "inputs": [],
      "name": "administrativeFee",
      "outputs": [
        {
          "internalType": "uint32",
          "name": "",
          "type": "uint32"
        }
      ],
      "stateMutability": "view",
      "type": "function",
      "constant": true
    },
    {
      "inputs": [
        {
          "internalType": "address",
          "name": "",
          "type": "address"
        }
      ],
      "name": "administrativeFees",
      "outputs": [
        {
          "internalType": "uint256",
          "name": "",
          "type": "uint256"
        }
      ],
      "stateMutability": "view",
      "type": "function",
      "constant": true
    },
    {
      "inputs": [
        {
          "internalType": "uint256",
          "name": "",
          "type": "uint256"
        }
      ],
      "name": "approve",
      "outputs": [
        {
          "internalType": "address",
          "name": "",
          "type": "address"
        }
      ],
      "stateMutability": "view",
      "type": "function",
      "constant": true
    },
    {
      "inputs": [
        {
          "internalType": "address",
          "name": "",
          "type": "address"
        }
      ],
      "name": "balances",
      "outputs": [
        {
          "internalType": "uint256",
          "name": "",
          "type": "uint256"
        }
      ],
      "stateMutability": "view",
      "type": "function",
      "constant": true
    },
    {
      "inputs": [],
      "name": "beneficiary",
      "outputs": [
        {
          "internalType": "address payable",
          "name": "",
          "type": "address"
        }
      ],
      "stateMutability": "view",
      "type": "function",
      "constant": true
    },
    {
      "inputs": [],
      "name": "indemnity",
      "outputs": [
        {
          "internalType": "uint256",
          "name": "",
          "type": "uint256"
        }
      ],
      "stateMutability": "view",
      "type": "function",
      "constant": true
    },
    {
      "inputs": [
        {
          "internalType": "address",
          "name": "",
          "type": "address"
        }
      ],
      "name": "isAuthorized",
      "outputs": [
        {
          "internalType": "bool",
          "name": "",
          "type": "bool"
        }
      ],
      "stateMutability": "view",
      "type": "function",
      "constant": true
    },
    {
      "inputs": [],
      "name": "isClaimed",
      "outputs": [
        {
          "internalType": "bool",
          "name": "",
          "type": "bool"
        }
      ],
      "stateMutability": "view",
      "type": "function",
      "constant": true
    },
    {
      "inputs": [
        {
          "internalType": "uint256",
          "name": "",
          "type": "uint256"
        }
      ],
      "name": "membersContract",
      "outputs": [
        {
          "internalType": "address",
          "name": "",
          "type": "address"
        }
      ],
      "stateMutability": "view",
      "type": "function",
      "constant": true
    },
    {
      "inputs": [],
      "name": "owner",
      "outputs": [
        {
          "internalType": "address",
          "name": "",
          "type": "address"
        }
      ],
      "stateMutability": "view",
      "type": "function",
      "constant": true
    },
    {
      "inputs": [
        {
          "internalType": "uint256",
          "name": "",
          "type": "uint256"
        }
      ],
      "name": "payers",
      "outputs": [
        {
          "internalType": "address",
          "name": "",
          "type": "address"
        }
      ],
      "stateMutability": "view",
      "type": "function",
      "constant": true
    },
    {
      "inputs": [],
      "name": "reposition",
      "outputs": [
        {
          "internalType": "uint256",
          "name": "",
          "type": "uint256"
        }
      ],
      "stateMutability": "view",
      "type": "function",
      "constant": true
    },
    {
      "inputs": [],
      "name": "statusIndemnity",
      "outputs": [
        {
          "internalType": "bool",
          "name": "",
          "type": "bool"
        }
      ],
      "stateMutability": "view",
      "type": "function",
      "constant": true
    },
    {
      "inputs": [],
      "name": "userQuantity",
      "outputs": [
        {
          "internalType": "uint256",
          "name": "",
          "type": "uint256"
        }
      ],
      "stateMutability": "view",
      "type": "function",
      "constant": true
    },
    {
      "inputs": [
        {
          "internalType": "uint256",
          "name": "",
          "type": "uint256"
        }
      ],
      "name": "userRequestingIndemnity",
      "outputs": [
        {
          "internalType": "address",
          "name": "",
          "type": "address"
        }
      ],
      "stateMutability": "view",
      "type": "function",
      "constant": true
    },
    {
      "inputs": [],
      "name": "value",
      "outputs": [
        {
          "internalType": "uint256",
          "name": "",
          "type": "uint256"
        }
      ],
      "stateMutability": "view",
      "type": "function",
      "constant": true
    },
    {
      "stateMutability": "payable",
      "type": "receive",
      "payable": true
    },
    {
      "inputs": [],
      "name": "deposit",
      "outputs": [],
      "stateMutability": "payable",
      "type": "function",
      "payable": true
    },
    {
      "inputs": [],
      "name": "getOwner",
      "outputs": [
        {
          "internalType": "address",
          "name": "",
          "type": "address"
        }
      ],
      "stateMutability": "view",
      "type": "function",
      "constant": true
    },
    {
      "inputs": [],
      "name": "showAllMembers",
      "outputs": [
        {
          "internalType": "address[]",
          "name": "",
          "type": "address[]"
        }
      ],
      "stateMutability": "view",
      "type": "function",
      "constant": true
    },
    {
      "inputs": [],
      "name": "getBalance",
      "outputs": [
        {
          "internalType": "uint256",
          "name": "",
          "type": "uint256"
        }
      ],
      "stateMutability": "view",
      "type": "function",
      "constant": true
    },
    {
      "inputs": [],
      "name": "getTotalWalletClients",
      "outputs": [
        {
          "internalType": "uint256",
          "name": "",
          "type": "uint256"
        }
      ],
      "stateMutability": "view",
      "type": "function",
      "constant": true
    },
    {
      "inputs": [
        {
          "internalType": "address",
          "name": "user",
          "type": "address"
        }
      ],
      "name": "addMember",
      "outputs": [],
      "stateMutability": "nonpayable",
      "type": "function"
    },
    {
      "inputs": [
        {
          "internalType": "address",
          "name": "userWallet",
          "type": "address"
        }
      ],
      "name": "removeMember",
      "outputs": [],
      "stateMutability": "nonpayable",
      "type": "function"
    },
    {
      "inputs": [
        {
          "internalType": "string",
          "name": "imeiValue",
          "type": "string"
        },
        {
          "internalType": "address payable",
          "name": "userWallet",
          "type": "address"
        },
        {
          "internalType": "uint256",
          "name": "insuredValue",
          "type": "uint256"
        }
      ],
      "name": "initialPayment",
      "outputs": [],
      "stateMutability": "payable",
      "type": "function",
      "payable": true
    },
    {
      "inputs": [
        {
          "internalType": "uint256",
          "name": "_value",
          "type": "uint256"
        }
      ],
      "name": "requestIndemnity",
      "outputs": [],
      "stateMutability": "nonpayable",
      "type": "function"
    },
    {
      "inputs": [
        {
          "internalType": "address payable",
          "name": "memberRequesting",
          "type": "address"
        }
      ],
      "name": "approveIndemnity",
      "outputs": [],
      "stateMutability": "payable",
      "type": "function",
      "payable": true
    }
  ],
  "bytecode": "0x60806040526005600160146101000a81548163ffffffff021916908363ffffffff1602179055506000600160186101000a81548160ff02191690831515021790555034801561004d57600080fd5b5033600160006101000a81548173ffffffffffffffffffffffffffffffffffffffff021916908373ffffffffffffffffffffffffffffffffffffffff160217905550611e428061009e6000396000f3fe6080604052600436106101a05760003560e01c806360540077116100ec578063b759f9541161008a578063e10f1f1811610064578063e10f1f181461059b578063f753d258146105c6578063fa9157a814610603578063fe9fbb8014610640576101a7565b8063b759f9541461052b578063ca6d56dc14610568578063d0e30db014610591576101a7565b80638da5cb5b116100c65780638da5cb5b1461048e578063a98a795c146104b9578063abc3ef7a146104e4578063b74b896d1461050f576101a7565b8063605400771461040a57806377bf4c5514610426578063893d20e814610463576101a7565b80633ccfbd031161015957806349f973fa1161013357806349f973fa1461034e57806357c9ca14146103775780635d3694b9146103a25780635df81642146103df576101a7565b80633ccfbd03146102bb5780633fa4f245146102f857806348bd73a514610323576101a7565b80630b1ca49a146101a95780630e49b3a3146101d257806312065fe0146101fd57806327e235e3146102285780633048585e1461026557806338af3eed14610290576101a7565b366101a757005b005b3480156101b557600080fd5b506101d060048036038101906101cb9190611559565b61067d565b005b3480156101de57600080fd5b506101e761093a565b6040516101f4919061159f565b60405180910390f35b34801561020957600080fd5b50610212610940565b60405161021f919061159f565b60405180910390f35b34801561023457600080fd5b5061024f600480360381019061024a9190611559565b610948565b60405161025c919061159f565b60405180910390f35b34801561027157600080fd5b5061027a610960565b604051610287919061159f565b60405180910390f35b34801561029c57600080fd5b506102a5610966565b6040516102b291906115db565b60405180910390f35b3480156102c757600080fd5b506102e260048036038101906102dd9190611622565b61098a565b6040516102ef919061165e565b60405180910390f35b34801561030457600080fd5b5061030d6109c9565b60405161031a919061159f565b60405180910390f35b34801561032f57600080fd5b506103386109cf565b604051610345919061159f565b60405180910390f35b34801561035a57600080fd5b5061037560048036038101906103709190611622565b6109d5565b005b34801561038357600080fd5b5061038c610b75565b6040516103999190611694565b60405180910390f35b3480156103ae57600080fd5b506103c960048036038101906103c49190611559565b610b88565b6040516103d69190611694565b60405180910390f35b3480156103eb57600080fd5b506103f4610ba8565b60405161040191906116ce565b60405180910390f35b610424600480360381019061041f919061185b565b610bbe565b005b34801561043257600080fd5b5061044d60048036038101906104489190611559565b610d9b565b60405161045a919061159f565b60405180910390f35b34801561046f57600080fd5b50610478610db3565b604051610485919061165e565b60405180910390f35b34801561049a57600080fd5b506104a3610ddd565b6040516104b0919061165e565b60405180910390f35b3480156104c557600080fd5b506104ce610e03565b6040516104db919061159f565b60405180910390f35b3480156104f057600080fd5b506104f9610e0d565b6040516105069190611988565b60405180910390f35b610529600480360381019061052491906119aa565b610e9b565b005b34801561053757600080fd5b50610552600480360381019061054d9190611622565b61125b565b60405161055f919061165e565b60405180910390f35b34801561057457600080fd5b5061058f600480360381019061058a9190611559565b61129a565b005b610599611434565b005b3480156105a757600080fd5b506105b0611436565b6040516105bd9190611694565b60405180910390f35b3480156105d257600080fd5b506105ed60048036038101906105e89190611622565b611449565b6040516105fa919061165e565b60405180910390f35b34801561060f57600080fd5b5061062a60048036038101906106259190611622565b611488565b604051610637919061165e565b60405180910390f35b34801561064c57600080fd5b5061066760048036038101906106629190611559565b6114c7565b6040516106749190611694565b60405180910390f35b600160009054906101000a900473ffffffffffffffffffffffffffffffffffffffff1673ffffffffffffffffffffffffffffffffffffffff163373ffffffffffffffffffffffffffffffffffffffff161461070d576040517f08c379a000000000000000000000000000000000000000000000000000000000815260040161070490611a34565b60405180910390fd5b60005b600780549050811015610935578173ffffffffffffffffffffffffffffffffffffffff166007828154811061074857610747611a54565b5b9060005260206000200160009054906101000a900473ffffffffffffffffffffffffffffffffffffffff1673ffffffffffffffffffffffffffffffffffffffff16036109225760008190505b60016007805490506107a69190611ab2565b8110156108675760076001826107bc9190611ae6565b815481106107cd576107cc611a54565b5b9060005260206000200160009054906101000a900473ffffffffffffffffffffffffffffffffffffffff166007828154811061080c5761080b611a54565b5b9060005260206000200160006101000a81548173ffffffffffffffffffffffffffffffffffffffff021916908373ffffffffffffffffffffffffffffffffffffffff160217905550808061085f90611b1a565b915050610794565b50600780548061087a57610879611b62565b5b6001900381819060005260206000200160006101000a81549073ffffffffffffffffffffffffffffffffffffffff0219169055905560016002546108be9190611ab2565b6002819055506000600d60008473ffffffffffffffffffffffffffffffffffffffff1673ffffffffffffffffffffffffffffffffffffffff16815260200190815260200160002060006101000a81548160ff02191690831515021790555050610937565b808061092d90611b1a565b915050610710565b505b50565b60025481565b600047905090565b600b6020528060005260406000206000915090505481565b60035481565b60008054906101000a900473ffffffffffffffffffffffffffffffffffffffff1681565b6008818154811061099a57600080fd5b906000526020600020016000915054906101000a900473ffffffffffffffffffffffffffffffffffffffff1681565b60055481565b60045481565b600d60003373ffffffffffffffffffffffffffffffffffffffff1673ffffffffffffffffffffffffffffffffffffffff16815260200190815260200160002060009054906101000a900460ff16610a61576040517f08c379a0000000000000000000000000000000000000000000000000000000008152600401610a5890611bdd565b60405180910390fd5b600160189054906101000a900460ff1615610ab1576040517f08c379a0000000000000000000000000000000000000000000000000000000008152600401610aa890611c49565b60405180910390fd5b80600c60003373ffffffffffffffffffffffffffffffffffffffff1673ffffffffffffffffffffffffffffffffffffffff1681526020019081526020016000208190555060018060186101000a81548160ff0219169083151502179055506009339080600181540180825580915050600190039060005260206000200160009091909190916101000a81548173ffffffffffffffffffffffffffffffffffffffff021916908373ffffffffffffffffffffffffffffffffffffffff16021790555050565b600660009054906101000a900460ff1681565b600d6020528060005260406000206000915054906101000a900460ff1681565b600160149054906101000a900463ffffffff1681565b600060405180606001604052808473ffffffffffffffffffffffffffffffffffffffff16815260200185815260200183815250905060006064600160149054906101000a900463ffffffff1663ffffffff1684610c1b9190611c69565b610c259190611cda565b83610c309190611ab2565b905034600b60003373ffffffffffffffffffffffffffffffffffffffff1673ffffffffffffffffffffffffffffffffffffffff1681526020019081526020016000206000828254610c819190611ae6565b925050819055506008339080600181540180825580915050600190039060005260206000200160009091909190916101000a81548173ffffffffffffffffffffffffffffffffffffffff021916908373ffffffffffffffffffffffffffffffffffffffff1602179055507f2499a5330ab0979cc612135e7883ebc3cd5c9f7a8508f042540c34723348f6323384604051610d1c929190611d0b565b60405180910390a17f6ef95f06320e7a25a04a175ca677b7052bdd97131872c2192525a629f51be7703334604051610d55929190611d0b565b60405180910390a17ff0ba619e6cf026fd42432537f1d45559f7401ec1a940be78c5dbb4caa6aa3a3d81604051610d8c919061159f565b60405180910390a15050505050565b600e6020528060005260406000206000915090505481565b6000600160009054906101000a900473ffffffffffffffffffffffffffffffffffffffff16905090565b600160009054906101000a900473ffffffffffffffffffffffffffffffffffffffff1681565b6000600254905090565b60606007805480602002602001604051908101604052809291908181526020018280548015610e9157602002820191906000526020600020905b8160009054906101000a900473ffffffffffffffffffffffffffffffffffffffff1673ffffffffffffffffffffffffffffffffffffffff1681526020019060010190808311610e47575b5050505050905090565b600160009054906101000a900473ffffffffffffffffffffffffffffffffffffffff1673ffffffffffffffffffffffffffffffffffffffff163373ffffffffffffffffffffffffffffffffffffffff1614610f2b576040517f08c379a0000000000000000000000000000000000000000000000000000000008152600401610f2290611a34565b60405180910390fd5b60011515600160189054906101000a900460ff16151514610f81576040517f08c379a0000000000000000000000000000000000000000000000000000000008152600401610f7890611d80565b60405180910390fd5b600c60006009600081548110610f9a57610f99611a54565b5b9060005260206000200160009054906101000a900473ffffffffffffffffffffffffffffffffffffffff1673ffffffffffffffffffffffffffffffffffffffff1673ffffffffffffffffffffffffffffffffffffffff16815260200190815260200160002054611008610940565b1015611049576040517f08c379a000000000000000000000000000000000000000000000000000000000815260040161104090611dec565b60405180910390fd5b60011515600160189054906101000a900460ff1615150361123d578073ffffffffffffffffffffffffffffffffffffffff166108fc600c6000600960008154811061109757611096611a54565b5b9060005260206000200160009054906101000a900473ffffffffffffffffffffffffffffffffffffffff1673ffffffffffffffffffffffffffffffffffffffff1673ffffffffffffffffffffffffffffffffffffffff168152602001908152602001600020549081150290604051600060405180830381858888f19350505050158015611128573d6000803e3d6000fd5b50600c6000600960008154811061114257611141611a54565b5b9060005260206000200160009054906101000a900473ffffffffffffffffffffffffffffffffffffffff1673ffffffffffffffffffffffffffffffffffffffff1673ffffffffffffffffffffffffffffffffffffffff16815260200190815260200160002054600b600060096000815481106111c1576111c0611a54565b5b9060005260206000200160009054906101000a900473ffffffffffffffffffffffffffffffffffffffff1673ffffffffffffffffffffffffffffffffffffffff1673ffffffffffffffffffffffffffffffffffffffff16815260200190815260200160002060008282546112359190611ab2565b925050819055505b6000600160186101000a81548160ff02191690831515021790555050565b600a818154811061126b57600080fd5b906000526020600020016000915054906101000a900473ffffffffffffffffffffffffffffffffffffffff1681565b600160009054906101000a900473ffffffffffffffffffffffffffffffffffffffff1673ffffffffffffffffffffffffffffffffffffffff163373ffffffffffffffffffffffffffffffffffffffff161461132a576040517f08c379a000000000000000000000000000000000000000000000000000000000815260040161132190611a34565b60405180910390fd5b6007819080600181540180825580915050600190039060005260206000200160009091909190916101000a81548173ffffffffffffffffffffffffffffffffffffffff021916908373ffffffffffffffffffffffffffffffffffffffff1602179055506001600d60008373ffffffffffffffffffffffffffffffffffffffff1673ffffffffffffffffffffffffffffffffffffffff16815260200190815260200160002060006101000a81548160ff02191690831515021790555060016002546113f49190611ae6565b6002819055507f1a2323d99020f3db8e6ea85b1eea81e5bf422695877228e3d8a0241d7e957a6c33604051611429919061165e565b60405180910390a150565b565b600160189054906101000a900460ff1681565b6009818154811061145957600080fd5b906000526020600020016000915054906101000a900473ffffffffffffffffffffffffffffffffffffffff1681565b6007818154811061149857600080fd5b906000526020600020016000915054906101000a900473ffffffffffffffffffffffffffffffffffffffff1681565b600f6020528060005260406000206000915054906101000a900460ff1681565b6000604051905090565b600080fd5b600080fd5b600073ffffffffffffffffffffffffffffffffffffffff82169050919050565b6000611526826114fb565b9050919050565b6115368161151b565b811461154157600080fd5b50565b6000813590506115538161152d565b92915050565b60006020828403121561156f5761156e6114f1565b5b600061157d84828501611544565b91505092915050565b6000819050919050565b61159981611586565b82525050565b60006020820190506115b46000830184611590565b92915050565b60006115c5826114fb565b9050919050565b6115d5816115ba565b82525050565b60006020820190506115f060008301846115cc565b92915050565b6115ff81611586565b811461160a57600080fd5b50565b60008135905061161c816115f6565b92915050565b600060208284031215611638576116376114f1565b5b60006116468482850161160d565b91505092915050565b6116588161151b565b82525050565b6000602082019050611673600083018461164f565b92915050565b60008115159050919050565b61168e81611679565b82525050565b60006020820190506116a96000830184611685565b92915050565b600063ffffffff82169050919050565b6116c8816116af565b82525050565b60006020820190506116e360008301846116bf565b92915050565b600080fd5b600080fd5b6000601f19601f8301169050919050565b7f4e487b7100000000000000000000000000000000000000000000000000000000600052604160045260246000fd5b61173c826116f3565b810181811067ffffffffffffffff8211171561175b5761175a611704565b5b80604052505050565b600061176e6114e7565b905061177a8282611733565b919050565b600067ffffffffffffffff82111561179a57611799611704565b5b6117a3826116f3565b9050602081019050919050565b82818337600083830152505050565b60006117d26117cd8461177f565b611764565b9050828152602081018484840111156117ee576117ed6116ee565b5b6117f98482856117b0565b509392505050565b600082601f830112611816576118156116e9565b5b81356118268482602086016117bf565b91505092915050565b611838816115ba565b811461184357600080fd5b50565b6000813590506118558161182f565b92915050565b600080600060608486031215611874576118736114f1565b5b600084013567ffffffffffffffff811115611892576118916114f6565b5b61189e86828701611801565b93505060206118af86828701611846565b92505060406118c08682870161160d565b9150509250925092565b600081519050919050565b600082825260208201905092915050565b6000819050602082019050919050565b6118ff8161151b565b82525050565b600061191183836118f6565b60208301905092915050565b6000602082019050919050565b6000611935826118ca565b61193f81856118d5565b935061194a836118e6565b8060005b8381101561197b5781516119628882611905565b975061196d8361191d565b92505060018101905061194e565b5085935050505092915050565b600060208201905081810360008301526119a2818461192a565b905092915050565b6000602082840312156119c0576119bf6114f1565b5b60006119ce84828501611846565b91505092915050565b600082825260208201905092915050565b7f43616c6c6572206973206e6f74206f776e657200000000000000000000000000600082015250565b6000611a1e6013836119d7565b9150611a29826119e8565b602082019050919050565b60006020820190508181036000830152611a4d81611a11565b9050919050565b7f4e487b7100000000000000000000000000000000000000000000000000000000600052603260045260246000fd5b7f4e487b7100000000000000000000000000000000000000000000000000000000600052601160045260246000fd5b6000611abd82611586565b9150611ac883611586565b9250828203905081811115611ae057611adf611a83565b5b92915050565b6000611af182611586565b9150611afc83611586565b9250828201905080821115611b1457611b13611a83565b5b92915050565b6000611b2582611586565b91507fffffffffffffffffffffffffffffffffffffffffffffffffffffffffffffffff8203611b5757611b56611a83565b5b600182019050919050565b7f4e487b7100000000000000000000000000000000000000000000000000000000600052603160045260246000fd5b7f4d656d626572206973206e6f7420616374697665000000000000000000000000600082015250565b6000611bc76014836119d7565b9150611bd282611b91565b602082019050919050565b60006020820190508181036000830152611bf681611bba565b9050919050565b7f496e64656d6e69747920616c7265616479207265717565737465640000000000600082015250565b6000611c33601b836119d7565b9150611c3e82611bfd565b602082019050919050565b60006020820190508181036000830152611c6281611c26565b9050919050565b6000611c7482611586565b9150611c7f83611586565b9250828202611c8d81611586565b91508282048414831517611ca457611ca3611a83565b5b5092915050565b7f4e487b7100000000000000000000000000000000000000000000000000000000600052601260045260246000fd5b6000611ce582611586565b9150611cf083611586565b925082611d0057611cff611cab565b5b828204905092915050565b6000604082019050611d20600083018561164f565b611d2d6020830184611590565b9392505050565b7f496e64656d6e697479206e6f7420726571756573746564000000000000000000600082015250565b6000611d6a6017836119d7565b9150611d7582611d34565b602082019050919050565b60006020820190508181036000830152611d9981611d5d565b9050919050565b7f496e73756666696369656e742066756e64730000000000000000000000000000600082015250565b6000611dd66012836119d7565b9150611de182611da0565b602082019050919050565b60006020820190508181036000830152611e0581611dc9565b905091905056fea2646970667358221220b5a4b33da35f972a980f6afce84897bf61f285b697b4ece83d464650005764d264736f6c63430008120033",
  "immutableReferences": {},
  "source": "// SPDX-License-Identifier: MIT\r\npragma solidity >=0.7.0 <0.9.0;\r\n\r\ncontract Owner {\r\n    address payable public beneficiary;\r\n    // Variaveis de estado\r\n    address public owner;\r\n    // taxa administrativa que deve ser paga pelo usurio no momento da entrada em um grupo de seguro\r\n    uint32 public administrativeFee = 5;\r\n    // status da indenizao. False = no solicitada, true = solicitada\r\n    bool public statusIndemnity = false;\r\n    // quantidade de usurios\r\n    uint public userQuantity; \r\n    // valor a ser reposto da reserva de risco\r\n    uint public reposition;\r\n    // valor da indenizao solicitada;\r\n    uint public indemnity;\r\n    uint public value;\r\n    bool public isClaimed;\r\n    // array contendo as carteiras de todos os membros do contrato\r\n    address [] public membersContract;\r\n    /* array contendo as carteiras dos membros\r\n     do contrato que realizaram o pagamento */\r\n    address[] public payers;\r\n    /*array contendo as carteiras dos membros\r\n     que solicitaram pagamento de reembolso */\r\n    address [] public userRequestingIndemnity;\r\n    address [] public approve;\r\n    // Struct \r\n    /*(Struct  um tipo de dado personalizado \r\n    que permite definir uma estrutura de dados\r\n    com vrias propriedades e us-la em funes e contratos).*/\r\n    struct Member{\r\n        // carteira do cliente do contrato\r\n        address client; \r\n        //Imei do usurio tratado por hash\r\n        string _imei;\r\n         //Dinheiro do usurio\r\n        uint cash;\r\n        //uint pricePhone;\r\n    }\r\n    //Mapping \r\n    /*(Mapping  uma estrutura de\r\n    dados que associa uma chave\r\n    nica a um valor). */\r\n    /*esse maping associa uma carteira a um valor\r\n     inteiro e representa o saldo de cada carteira*/\r\n    mapping (address => uint256) public balances;\r\n    /*esse mamping associa uma carteira a um valor\r\n    inteiro e representa o valor solicitado em uma indenizao*/\r\n    mapping(address => uint256) private indemnityRequests;\r\n    /* esse mapping associa uma carteira a um valor booleano \r\n    e representa os membros ativos do contrato */\r\n    mapping(address => bool) public activeMembers;\r\n    /* esse mapping associa uma carteira ao valor \r\n    referente ao pagamento da taxa administrativa */\r\n    mapping(address => uint256) public administrativeFees;\r\n    mapping(address => bool) public isAuthorized;\r\n\r\n    // Eventos \r\n    /*(Eventos so notificaes emitidas durante\r\n     a execuo de um contrato para informar a \r\n     ocorrncia de uma determinada ao).*/\r\n    // Evento que registra quando o usurio fizer uma compra.\r\n    event Purchase(address _buyer, uint _amount); \r\n    // Evento que registra a adio de um novo membro no contrato. \r\n    event AddMember (address member); \r\n    // Evento que registra o recebimento de um pagamento. \r\n    event PaymentReceived(address member, uint amount);\r\n    // Evento que registra quando todos os pagamentos foram feitos. \r\n    event FinalAmount(uint finalValue); \r\n        // Modificador para verificar se quem chamou  o proprietrio\r\n    modifier isOwner() {\r\n        require(msg.sender == owner, \"Caller is not owner\");\r\n        _;\r\n    }\r\n    // Funes \"receive\" e \"fallback\" do solidity \r\n    /*Funo que  chamada quando o contrato \r\n    recebe um valor sem nenhum dado de transao anexado.*/\r\n    receive() external payable { \r\n    }\r\n    /* Funo que  chamada quando uma funo\r\n     invocada no existe ou se no for vlida. */\r\n    fallback() external payable { \r\n    }\r\n    function deposit() external payable {}\r\n    /*Funo especial que  executada apenas uma vez \r\n    quando o contrato  implantado na rede ethereum*/\r\n    // define que o administrador do contrato  quem fez deploy \r\n    constructor() {\r\n        owner = msg.sender; \r\n    }\r\n\r\n    // Funo que retorna a carteira do proprietrio.\r\n    function getOwner() external view returns (address) {\r\n        return owner;\r\n    }\r\n\r\n    // Funo para exibir todos os membros.\r\n    function showAllMembers() external view returns (address[] memory) { \r\n        return membersContract;\r\n    }\r\n\r\n    // // Funo para obter os reembolsos pendentes de usurios.\r\n    // function getPendingIndemnities() public isOwner view returns (address [] memory){\r\n    //     return userRequestingIndemnity;\r\n    // }\r\n\r\n    // Funo que retorna o valor do fundo\r\n    function getBalance() public view returns (uint) {\r\n        return address(this).balance;\r\n    }\r\n\r\n    // Funo para ver quantas pessoas h na carteira \r\n    function getTotalWalletClients() public view returns (uint) {\r\n        return userQuantity;\r\n    }\r\n\r\n    // Funo que adiciona um membro a lista de membros do contrato\r\n    // Essa funo atende aos seguintes requisitos:\r\n    // requisito 1: criao de um grupo de seguro mtuo\r\n    // requisito 4: gerenciamento do nmero de clientes na plataforma\r\n    function addMember(address user) public isOwner { \r\n        membersContract.push(user); \r\n        activeMembers[user] = true;\r\n        userQuantity = userQuantity + 1;\r\n        emit AddMember(msg.sender);\r\n    }\r\n\r\n    //Funo que remove um membro do grupo \r\n    // essa funo atende ao seguinte requisito:\r\n    // requisito 4: gerenciamento do nmero de clientes na plataforma\r\n    function removeMember(address userWallet) public isOwner {\r\n    for (uint i = 0; i < membersContract.length; i++) {\r\n        if (membersContract[i] == userWallet) {\r\n            for (uint index = i; index < membersContract.length - 1; index++) {\r\n                membersContract[index] = membersContract[index + 1];\r\n            }\r\n            membersContract.pop();\r\n            userQuantity = userQuantity - 1;\r\n            activeMembers[userWallet] = false;\r\n            return;\r\n        }\r\n    }\r\n}\r\n\r\n    // Funo para realizar o pagamento do contrato de seguro  \r\n    // Essa funo atende aos seguintes requisitos:\r\n    // requisito 2: cobrana de uma taxa administrativa no momento da contratao do seguro\r\n    // requisito 3: cobrana do valor referente ao pagamento do seguro mtuo.\r\n    function initialPayment(string memory imeiValue, address payable userWallet, uint insuredValue) external payable{\r\n        Member memory members = Member(userWallet, imeiValue, insuredValue);\r\n        uint256 depositUser = insuredValue - ((insuredValue * administrativeFee)/100);\r\n        balances[msg.sender] += msg.value;\r\n        //.transfer(((insuredValue * administrativeFee)/100));\r\n        payers.push(msg.sender);\r\n        emit Purchase(msg.sender, insuredValue);\r\n        emit PaymentReceived(msg.sender, msg.value);\r\n        emit FinalAmount(depositUser);\r\n    }\r\n\r\n    \r\n    /* Essa funo verifica de quem solicitou a indenizao est no contrato\r\n    e adiciona sua carteira a uma lista de solicitantes */\r\n    // **** Essa funo demanda gs para ser executada\r\n    //Essa funo atende ao seguinte requisito:\r\n    //Requisito 5: realizao de um pedido de indenizao\r\n    function requestIndemnity(uint256 _value) external {\r\n        require(activeMembers[msg.sender], \"Member is not active\");\r\n        // require(balances[msg.sender] >= _value, \"Insufficient funds\");\r\n        require(!statusIndemnity, \"Indemnity already requested\");\r\n        indemnityRequests[msg.sender] = _value;\r\n        statusIndemnity = true;\r\n        userRequestingIndemnity.push(msg.sender);\r\n    }\r\n\r\n    // Funo voltada para o pagamento da indenizao solicitada\r\n    // essa funo atende ao seguint256e requisito: \r\n    // requisito 6: aprovao dos pedidos de indenizao\r\n    // Funo para aprovao de indenizao\r\n    function approveIndemnity(address payable memberRequesting) external payable isOwner{\r\n        require(statusIndemnity == true, \"Indemnity not requested\");\r\n        require(getBalance() >= indemnityRequests[userRequestingIndemnity[0]], \"Insufficient funds\");\r\n        if (statusIndemnity == true){\r\n            memberRequesting.transfer(indemnityRequests[userRequestingIndemnity[0]]);\r\n            balances[userRequestingIndemnity[0]] -= indemnityRequests[userRequestingIndemnity[0]];\r\n        }\r\n        statusIndemnity = false;\r\n    }\r\n\r\n    /*Funo que verifica a integridade da reserva de risco e\r\n    em caso de comprometimento dessa, solicita sua reposio aos \r\n    membros do contrato */\r\n    // essa funo atende ao seguinte requisito\r\n    // requisito 7: reposio da reserva de risco\r\n    // function riskReserveRefund() public payable{\r\n    //     reposition = indemnity/userQuantity;\r\n    //     //funo que permite a reposio da reserva de risco e garante que todos os membros a paguem \r\n    //     require(msg.value == reposition, \"Valor devido incorreto.\");\r\n    //     // adiciona as carteiras dos membros que pagaram a um array de pagantes\r\n    //     payers.push(msg.sender);\r\n    //     // verifica se todos pagaram e muda o status da variavel de solicitao da indenizao em caso positivo\r\n    //     if (payers.length == userQuantity) {\r\n    //         statusIndemnity = false;\r\n    //     }\r\n    // }\r\n\r\n}\r\n",
  "sourcePath": "C:\\Users\\Inteli\\Projeto1\\contracts\\contractCore.sol",
  "compiler": {
    "name": "solc",
    "version": "0.8.18+commit.87f61d96.Emscripten.clang"
  },
  "schemaVersion": "3.4.11",
  "updatedAt": "2023-04-04T19:31:23.149Z",
  "networkType": "ethereum",
  "devdoc": {
    "kind": "dev",
    "methods": {},
    "version": 1
  },
  "userdoc": {
    "kind": "user",
    "methods": {},
    "version": 1
  }
}