{
  "contractName": "Owner",
  "abi": [
    {
      "inputs": [],
      "stateMutability": "nonpayable",
      "type": "constructor"
    },
    {
      "anonymous": false,
      "inputs": [
        {
          "indexed": false,
          "internalType": "address",
          "name": "member",
          "type": "address"
        }
      ],
      "name": "AddMember",
      "type": "event"
    },
    {
      "anonymous": false,
      "inputs": [
        {
          "indexed": false,
          "internalType": "uint256",
          "name": "finalValue",
          "type": "uint256"
        }
      ],
      "name": "FinalAmount",
      "type": "event"
    },
    {
      "anonymous": false,
      "inputs": [
        {
          "indexed": false,
          "internalType": "address",
          "name": "member",
          "type": "address"
        },
        {
          "indexed": false,
          "internalType": "uint256",
          "name": "amount",
          "type": "uint256"
        }
      ],
      "name": "PaymentReceived",
      "type": "event"
    },
    {
      "anonymous": false,
      "inputs": [
        {
          "indexed": false,
          "internalType": "address",
          "name": "_buyer",
          "type": "address"
        },
        {
          "indexed": false,
          "internalType": "uint256",
          "name": "_amount",
          "type": "uint256"
        }
      ],
      "name": "Purchase",
      "type": "event"
    },
    {
      "stateMutability": "payable",
      "type": "fallback",
      "payable": true
    },
    {
      "inputs": [
        {
          "internalType": "address",
          "name": "",
          "type": "address"
        }
      ],
      "name": "activeMembers",
      "outputs": [
        {
          "internalType": "bool",
          "name": "",
          "type": "bool"
        }
      ],
      "stateMutability": "view",
      "type": "function",
      "constant": true
    },
    {
      "inputs": [],
      "name": "administrativeFee",
      "outputs": [
        {
          "internalType": "uint32",
          "name": "",
          "type": "uint32"
        }
      ],
      "stateMutability": "view",
      "type": "function",
      "constant": true
    },
    {
      "inputs": [
        {
          "internalType": "address",
          "name": "",
          "type": "address"
        }
      ],
      "name": "administrativeFees",
      "outputs": [
        {
          "internalType": "uint256",
          "name": "",
          "type": "uint256"
        }
      ],
      "stateMutability": "view",
      "type": "function",
      "constant": true
    },
    {
      "inputs": [
        {
          "internalType": "uint256",
          "name": "",
          "type": "uint256"
        }
      ],
      "name": "approve",
      "outputs": [
        {
          "internalType": "address",
          "name": "",
          "type": "address"
        }
      ],
      "stateMutability": "view",
      "type": "function",
      "constant": true
    },
    {
      "inputs": [
        {
          "internalType": "address",
          "name": "",
          "type": "address"
        }
      ],
      "name": "balances",
      "outputs": [
        {
          "internalType": "uint256",
          "name": "",
          "type": "uint256"
        }
      ],
      "stateMutability": "view",
      "type": "function",
      "constant": true
    },
    {
      "inputs": [],
      "name": "beneficiary",
      "outputs": [
        {
          "internalType": "address payable",
          "name": "",
          "type": "address"
        }
      ],
      "stateMutability": "view",
      "type": "function",
      "constant": true
    },
    {
      "inputs": [],
      "name": "indemnity",
      "outputs": [
        {
          "internalType": "uint256",
          "name": "",
          "type": "uint256"
        }
      ],
      "stateMutability": "view",
      "type": "function",
      "constant": true
    },
    {
      "inputs": [
        {
          "internalType": "uint256",
          "name": "",
          "type": "uint256"
        }
      ],
      "name": "membersContract",
      "outputs": [
        {
          "internalType": "address",
          "name": "",
          "type": "address"
        }
      ],
      "stateMutability": "view",
      "type": "function",
      "constant": true
    },
    {
      "inputs": [],
      "name": "owner",
      "outputs": [
        {
          "internalType": "address",
          "name": "",
          "type": "address"
        }
      ],
      "stateMutability": "view",
      "type": "function",
      "constant": true
    },
    {
      "inputs": [
        {
          "internalType": "uint256",
          "name": "",
          "type": "uint256"
        }
      ],
      "name": "payers",
      "outputs": [
        {
          "internalType": "address",
          "name": "",
          "type": "address"
        }
      ],
      "stateMutability": "view",
      "type": "function",
      "constant": true
    },
    {
      "inputs": [],
      "name": "reposition",
      "outputs": [
        {
          "internalType": "uint256",
          "name": "",
          "type": "uint256"
        }
      ],
      "stateMutability": "view",
      "type": "function",
      "constant": true
    },
    {
      "inputs": [],
      "name": "statusIndemnity",
      "outputs": [
        {
          "internalType": "bool",
          "name": "",
          "type": "bool"
        }
      ],
      "stateMutability": "view",
      "type": "function",
      "constant": true
    },
    {
      "inputs": [],
      "name": "userQuantity",
      "outputs": [
        {
          "internalType": "uint256",
          "name": "",
          "type": "uint256"
        }
      ],
      "stateMutability": "view",
      "type": "function",
      "constant": true
    },
    {
      "inputs": [
        {
          "internalType": "uint256",
          "name": "",
          "type": "uint256"
        }
      ],
      "name": "userRequestingIndemnity",
      "outputs": [
        {
          "internalType": "address",
          "name": "",
          "type": "address"
        }
      ],
      "stateMutability": "view",
      "type": "function",
      "constant": true
    },
    {
      "inputs": [],
      "name": "value",
      "outputs": [
        {
          "internalType": "uint256",
          "name": "",
          "type": "uint256"
        }
      ],
      "stateMutability": "view",
      "type": "function",
      "constant": true
    },
    {
      "stateMutability": "payable",
      "type": "receive",
      "payable": true
    },
    {
      "inputs": [],
      "name": "deposit",
      "outputs": [],
      "stateMutability": "payable",
      "type": "function",
      "payable": true
    },
    {
      "inputs": [],
      "name": "getOwner",
      "outputs": [
        {
          "internalType": "address",
          "name": "",
          "type": "address"
        }
      ],
      "stateMutability": "view",
      "type": "function",
      "constant": true
    },
    {
      "inputs": [],
      "name": "showAllMembers",
      "outputs": [
        {
          "internalType": "address[]",
          "name": "",
          "type": "address[]"
        }
      ],
      "stateMutability": "view",
      "type": "function",
      "constant": true
    },
    {
      "inputs": [],
      "name": "getBalance",
      "outputs": [
        {
          "internalType": "uint256",
          "name": "",
          "type": "uint256"
        }
      ],
      "stateMutability": "view",
      "type": "function",
      "constant": true
    },
    {
      "inputs": [],
      "name": "getTotalWalletClients",
      "outputs": [
        {
          "internalType": "uint256",
          "name": "",
          "type": "uint256"
        }
      ],
      "stateMutability": "view",
      "type": "function",
      "constant": true
    },
    {
      "inputs": [
        {
          "internalType": "address",
          "name": "user",
          "type": "address"
        }
      ],
      "name": "addMember",
      "outputs": [],
      "stateMutability": "nonpayable",
      "type": "function"
    },
    {
      "inputs": [
        {
          "internalType": "address",
          "name": "userWallet",
          "type": "address"
        }
      ],
      "name": "removeMember",
      "outputs": [],
      "stateMutability": "nonpayable",
      "type": "function"
    },
    {
      "inputs": [
        {
          "internalType": "string",
          "name": "imeiValue",
          "type": "string"
        },
        {
          "internalType": "address payable",
          "name": "userWallet",
          "type": "address"
        },
        {
          "internalType": "uint256",
          "name": "insuredValue",
          "type": "uint256"
        }
      ],
      "name": "initialPayment",
      "outputs": [],
      "stateMutability": "payable",
      "type": "function",
      "payable": true
    },
    {
      "inputs": [
        {
          "internalType": "uint256",
          "name": "_value",
          "type": "uint256"
        }
      ],
      "name": "requestIndemnity",
      "outputs": [],
      "stateMutability": "nonpayable",
      "type": "function"
    },
    {
      "inputs": [
        {
          "internalType": "address payable",
          "name": "_memberRequesting",
          "type": "address"
        },
        {
          "internalType": "uint256",
          "name": "_amount",
          "type": "uint256"
        }
      ],
      "name": "approveIndemnity",
      "outputs": [],
      "stateMutability": "nonpayable",
      "type": "function"
    }
  ],
  "bytecode": "0x60806040526005600160146101000a81548163ffffffff021916908363ffffffff16021790555060018060186101000a81548160ff02191690831515021790555034801561004c57600080fd5b5033600160006101000a81548173ffffffffffffffffffffffffffffffffffffffff021916908373ffffffffffffffffffffffffffffffffffffffff160217905550611bc98061009d6000396000f3fe60806040526004361061016a5760003560e01c80635df81642116100d1578063abc3ef7a1161008a578063d0e30db011610064578063d0e30db01461053d578063e10f1f1814610547578063f753d25814610572578063fa9157a8146105af57610171565b8063abc3ef7a146104ac578063b759f954146104d7578063ca6d56dc1461051457610171565b80635df81642146103a757806360540077146103d257806377bf4c55146103ee578063893d20e81461042b5780638da5cb5b14610456578063a98a795c1461048157610171565b806338af3eed1161012357806338af3eed146102835780633ccfbd03146102ae5780633fa4f245146102eb57806348bd73a51461031657806349f973fa146103415780635d3694b91461036a57610171565b80630b1ca49a146101735780630e49b3a31461019c5780630fd298ab146101c757806312065fe0146101f057806327e235e31461021b5780633048585e1461025857610171565b3661017157005b005b34801561017f57600080fd5b5061019a60048036038101906101959190611287565b6105ec565b005b3480156101a857600080fd5b506101b16108a9565b6040516101be91906112cd565b60405180910390f35b3480156101d357600080fd5b506101ee60048036038101906101e99190611352565b6108af565b005b3480156101fc57600080fd5b50610205610a61565b60405161021291906112cd565b60405180910390f35b34801561022757600080fd5b50610242600480360381019061023d9190611287565b610a69565b60405161024f91906112cd565b60405180910390f35b34801561026457600080fd5b5061026d610a81565b60405161027a91906112cd565b60405180910390f35b34801561028f57600080fd5b50610298610a87565b6040516102a591906113a1565b60405180910390f35b3480156102ba57600080fd5b506102d560048036038101906102d091906113bc565b610aab565b6040516102e291906113f8565b60405180910390f35b3480156102f757600080fd5b50610300610aea565b60405161030d91906112cd565b60405180910390f35b34801561032257600080fd5b5061032b610af0565b60405161033891906112cd565b60405180910390f35b34801561034d57600080fd5b50610368600480360381019061036391906113bc565b610af6565b005b34801561037657600080fd5b50610391600480360381019061038c9190611287565b610c96565b60405161039e919061142e565b60405180910390f35b3480156103b357600080fd5b506103bc610cb6565b6040516103c99190611468565b60405180910390f35b6103ec60048036038101906103e791906115c9565b610ccc565b005b3480156103fa57600080fd5b5061041560048036038101906104109190611287565b610ea9565b60405161042291906112cd565b60405180910390f35b34801561043757600080fd5b50610440610ec1565b60405161044d91906113f8565b60405180910390f35b34801561046257600080fd5b5061046b610eeb565b60405161047891906113f8565b60405180910390f35b34801561048d57600080fd5b50610496610f11565b6040516104a391906112cd565b60405180910390f35b3480156104b857600080fd5b506104c1610f1b565b6040516104ce91906116f6565b60405180910390f35b3480156104e357600080fd5b506104fe60048036038101906104f991906113bc565b610fa9565b60405161050b91906113f8565b60405180910390f35b34801561052057600080fd5b5061053b60048036038101906105369190611287565b610fe8565b005b610545611182565b005b34801561055357600080fd5b5061055c611184565b604051610569919061142e565b60405180910390f35b34801561057e57600080fd5b50610599600480360381019061059491906113bc565b611197565b6040516105a691906113f8565b60405180910390f35b3480156105bb57600080fd5b506105d660048036038101906105d191906113bc565b6111d6565b6040516105e391906113f8565b60405180910390f35b600160009054906101000a900473ffffffffffffffffffffffffffffffffffffffff1673ffffffffffffffffffffffffffffffffffffffff163373ffffffffffffffffffffffffffffffffffffffff161461067c576040517f08c379a000000000000000000000000000000000000000000000000000000000815260040161067390611775565b60405180910390fd5b60005b6006805490508110156108a4578173ffffffffffffffffffffffffffffffffffffffff16600682815481106106b7576106b6611795565b5b9060005260206000200160009054906101000a900473ffffffffffffffffffffffffffffffffffffffff1673ffffffffffffffffffffffffffffffffffffffff16036108915760008190505b600160068054905061071591906117f3565b8110156107d657600660018261072b9190611827565b8154811061073c5761073b611795565b5b9060005260206000200160009054906101000a900473ffffffffffffffffffffffffffffffffffffffff166006828154811061077b5761077a611795565b5b9060005260206000200160006101000a81548173ffffffffffffffffffffffffffffffffffffffff021916908373ffffffffffffffffffffffffffffffffffffffff16021790555080806107ce9061185b565b915050610703565b5060068054806107e9576107e86118a3565b5b6001900381819060005260206000200160006101000a81549073ffffffffffffffffffffffffffffffffffffffff02191690559055600160025461082d91906117f3565b6002819055506000600c60008473ffffffffffffffffffffffffffffffffffffffff1673ffffffffffffffffffffffffffffffffffffffff16815260200190815260200160002060006101000a81548160ff021916908315150217905550506108a6565b808061089c9061185b565b91505061067f565b505b50565b60025481565b600160009054906101000a900473ffffffffffffffffffffffffffffffffffffffff1673ffffffffffffffffffffffffffffffffffffffff163373ffffffffffffffffffffffffffffffffffffffff161461093f576040517f08c379a000000000000000000000000000000000000000000000000000000000815260040161093690611775565b60405180910390fd5b60011515600160189054906101000a900460ff16151514610995576040517f08c379a000000000000000000000000000000000000000000000000000000000815260040161098c9061191e565b60405180910390fd5b60008273ffffffffffffffffffffffffffffffffffffffff16826040516109bb9061196f565b60006040518083038185875af1925050503d80600081146109f8576040519150601f19603f3d011682016040523d82523d6000602084013e6109fd565b606091505b5050905080610a41576040517f08c379a0000000000000000000000000000000000000000000000000000000008152600401610a38906119d0565b60405180910390fd5b6000600160186101000a81548160ff021916908315150217905550505050565b600047905090565b600a6020528060005260406000206000915090505481565b60035481565b60008054906101000a900473ffffffffffffffffffffffffffffffffffffffff1681565b60078181548110610abb57600080fd5b906000526020600020016000915054906101000a900473ffffffffffffffffffffffffffffffffffffffff1681565b60055481565b60045481565b600c60003373ffffffffffffffffffffffffffffffffffffffff1673ffffffffffffffffffffffffffffffffffffffff16815260200190815260200160002060009054906101000a900460ff16610b82576040517f08c379a0000000000000000000000000000000000000000000000000000000008152600401610b7990611a3c565b60405180910390fd5b600160189054906101000a900460ff1615610bd2576040517f08c379a0000000000000000000000000000000000000000000000000000000008152600401610bc990611aa8565b60405180910390fd5b80600b60003373ffffffffffffffffffffffffffffffffffffffff1673ffffffffffffffffffffffffffffffffffffffff1681526020019081526020016000208190555060018060186101000a81548160ff0219169083151502179055506008339080600181540180825580915050600190039060005260206000200160009091909190916101000a81548173ffffffffffffffffffffffffffffffffffffffff021916908373ffffffffffffffffffffffffffffffffffffffff16021790555050565b600c6020528060005260406000206000915054906101000a900460ff1681565b600160149054906101000a900463ffffffff1681565b600060405180606001604052808473ffffffffffffffffffffffffffffffffffffffff16815260200185815260200183815250905060006064600160149054906101000a900463ffffffff1663ffffffff1684610d299190611ac8565b610d339190611b39565b83610d3e91906117f3565b905034600a60003373ffffffffffffffffffffffffffffffffffffffff1673ffffffffffffffffffffffffffffffffffffffff1681526020019081526020016000206000828254610d8f9190611827565b925050819055506007339080600181540180825580915050600190039060005260206000200160009091909190916101000a81548173ffffffffffffffffffffffffffffffffffffffff021916908373ffffffffffffffffffffffffffffffffffffffff1602179055507f2499a5330ab0979cc612135e7883ebc3cd5c9f7a8508f042540c34723348f6323384604051610e2a929190611b6a565b60405180910390a17f6ef95f06320e7a25a04a175ca677b7052bdd97131872c2192525a629f51be7703334604051610e63929190611b6a565b60405180910390a17ff0ba619e6cf026fd42432537f1d45559f7401ec1a940be78c5dbb4caa6aa3a3d81604051610e9a91906112cd565b60405180910390a15050505050565b600d6020528060005260406000206000915090505481565b6000600160009054906101000a900473ffffffffffffffffffffffffffffffffffffffff16905090565b600160009054906101000a900473ffffffffffffffffffffffffffffffffffffffff1681565b6000600254905090565b60606006805480602002602001604051908101604052809291908181526020018280548015610f9f57602002820191906000526020600020905b8160009054906101000a900473ffffffffffffffffffffffffffffffffffffffff1673ffffffffffffffffffffffffffffffffffffffff1681526020019060010190808311610f55575b5050505050905090565b60098181548110610fb957600080fd5b906000526020600020016000915054906101000a900473ffffffffffffffffffffffffffffffffffffffff1681565b600160009054906101000a900473ffffffffffffffffffffffffffffffffffffffff1673ffffffffffffffffffffffffffffffffffffffff163373ffffffffffffffffffffffffffffffffffffffff1614611078576040517f08c379a000000000000000000000000000000000000000000000000000000000815260040161106f90611775565b60405180910390fd5b6006819080600181540180825580915050600190039060005260206000200160009091909190916101000a81548173ffffffffffffffffffffffffffffffffffffffff021916908373ffffffffffffffffffffffffffffffffffffffff1602179055506001600c60008373ffffffffffffffffffffffffffffffffffffffff1673ffffffffffffffffffffffffffffffffffffffff16815260200190815260200160002060006101000a81548160ff02191690831515021790555060016002546111429190611827565b6002819055507f1a2323d99020f3db8e6ea85b1eea81e5bf422695877228e3d8a0241d7e957a6c3360405161117791906113f8565b60405180910390a150565b565b600160189054906101000a900460ff1681565b600881815481106111a757600080fd5b906000526020600020016000915054906101000a900473ffffffffffffffffffffffffffffffffffffffff1681565b600681815481106111e657600080fd5b906000526020600020016000915054906101000a900473ffffffffffffffffffffffffffffffffffffffff1681565b6000604051905090565b600080fd5b600080fd5b600073ffffffffffffffffffffffffffffffffffffffff82169050919050565b600061125482611229565b9050919050565b61126481611249565b811461126f57600080fd5b50565b6000813590506112818161125b565b92915050565b60006020828403121561129d5761129c61121f565b5b60006112ab84828501611272565b91505092915050565b6000819050919050565b6112c7816112b4565b82525050565b60006020820190506112e260008301846112be565b92915050565b60006112f382611229565b9050919050565b611303816112e8565b811461130e57600080fd5b50565b600081359050611320816112fa565b92915050565b61132f816112b4565b811461133a57600080fd5b50565b60008135905061134c81611326565b92915050565b600080604083850312156113695761136861121f565b5b600061137785828601611311565b92505060206113888582860161133d565b9150509250929050565b61139b816112e8565b82525050565b60006020820190506113b66000830184611392565b92915050565b6000602082840312156113d2576113d161121f565b5b60006113e08482850161133d565b91505092915050565b6113f281611249565b82525050565b600060208201905061140d60008301846113e9565b92915050565b60008115159050919050565b61142881611413565b82525050565b6000602082019050611443600083018461141f565b92915050565b600063ffffffff82169050919050565b61146281611449565b82525050565b600060208201905061147d6000830184611459565b92915050565b600080fd5b600080fd5b6000601f19601f8301169050919050565b7f4e487b7100000000000000000000000000000000000000000000000000000000600052604160045260246000fd5b6114d68261148d565b810181811067ffffffffffffffff821117156114f5576114f461149e565b5b80604052505050565b6000611508611215565b905061151482826114cd565b919050565b600067ffffffffffffffff8211156115345761153361149e565b5b61153d8261148d565b9050602081019050919050565b82818337600083830152505050565b600061156c61156784611519565b6114fe565b90508281526020810184848401111561158857611587611488565b5b61159384828561154a565b509392505050565b600082601f8301126115b0576115af611483565b5b81356115c0848260208601611559565b91505092915050565b6000806000606084860312156115e2576115e161121f565b5b600084013567ffffffffffffffff811115611600576115ff611224565b5b61160c8682870161159b565b935050602061161d86828701611311565b925050604061162e8682870161133d565b9150509250925092565b600081519050919050565b600082825260208201905092915050565b6000819050602082019050919050565b61166d81611249565b82525050565b600061167f8383611664565b60208301905092915050565b6000602082019050919050565b60006116a382611638565b6116ad8185611643565b93506116b883611654565b8060005b838110156116e95781516116d08882611673565b97506116db8361168b565b9250506001810190506116bc565b5085935050505092915050565b600060208201905081810360008301526117108184611698565b905092915050565b600082825260208201905092915050565b7f43616c6c6572206973206e6f74206f776e657200000000000000000000000000600082015250565b600061175f601383611718565b915061176a82611729565b602082019050919050565b6000602082019050818103600083015261178e81611752565b9050919050565b7f4e487b7100000000000000000000000000000000000000000000000000000000600052603260045260246000fd5b7f4e487b7100000000000000000000000000000000000000000000000000000000600052601160045260246000fd5b60006117fe826112b4565b9150611809836112b4565b9250828203905081811115611821576118206117c4565b5b92915050565b6000611832826112b4565b915061183d836112b4565b9250828201905080821115611855576118546117c4565b5b92915050565b6000611866826112b4565b91507fffffffffffffffffffffffffffffffffffffffffffffffffffffffffffffffff8203611898576118976117c4565b5b600182019050919050565b7f4e487b7100000000000000000000000000000000000000000000000000000000600052603160045260246000fd5b7f496e64656d6e697479206e6f7420726571756573746564000000000000000000600082015250565b6000611908601783611718565b9150611913826118d2565b602082019050919050565b60006020820190508181036000830152611937816118fb565b9050919050565b600081905092915050565b50565b600061195960008361193e565b915061196482611949565b600082019050919050565b600061197a8261194c565b9150819050919050565b7f4661696c656420746f2073656e64204574686572000000000000000000000000600082015250565b60006119ba601483611718565b91506119c582611984565b602082019050919050565b600060208201905081810360008301526119e9816119ad565b9050919050565b7f4d656d626572206973206e6f7420616374697665000000000000000000000000600082015250565b6000611a26601483611718565b9150611a31826119f0565b602082019050919050565b60006020820190508181036000830152611a5581611a19565b9050919050565b7f496e64656d6e69747920616c7265616479207265717565737465640000000000600082015250565b6000611a92601b83611718565b9150611a9d82611a5c565b602082019050919050565b60006020820190508181036000830152611ac181611a85565b9050919050565b6000611ad3826112b4565b9150611ade836112b4565b9250828202611aec816112b4565b91508282048414831517611b0357611b026117c4565b5b5092915050565b7f4e487b7100000000000000000000000000000000000000000000000000000000600052601260045260246000fd5b6000611b44826112b4565b9150611b4f836112b4565b925082611b5f57611b5e611b0a565b5b828204905092915050565b6000604082019050611b7f60008301856113e9565b611b8c60208301846112be565b939250505056fea2646970667358221220e2077c6b29e4e9ea58aeadaf211ec47b6830c552cd10cd357913a49e83e256b064736f6c63430008120033",
  "immutableReferences": {},
  "source": "// SPDX-License-Identifier: MIT\r\npragma solidity >=0.7.0 <0.9.0;\r\n\r\ncontract Owner {\r\n    address payable public beneficiary;\r\n    // Variaveis de estado\r\n    address public owner;\r\n    // taxa administrativa que deve ser paga pelo usurio no momento da entrada em um grupo de seguro\r\n    uint32 public administrativeFee = 5;\r\n    // status da indenizao. False = no solicitada, true = solicitada\r\n    bool public statusIndemnity = true;\r\n    // quantidade de usurios\r\n    uint public userQuantity; \r\n    // valor a ser reposto da reserva de risco\r\n    uint public reposition;\r\n    // valor da indenizao solicitada;\r\n    uint public indemnity;\r\n    uint public value;\r\n    // array contendo as carteiras de todos os membros do contrato\r\n    address [] public membersContract;\r\n    /* array contendo as carteiras dos membros\r\n     do contrato que realizaram o pagamento */\r\n    address[] public payers;\r\n    /*array contendo as carteiras dos membros\r\n     que solicitaram pagamento de reembolso */\r\n    address [] public userRequestingIndemnity;\r\n    address [] public approve;\r\n    // Struct \r\n    /*(Struct  um tipo de dado personalizado \r\n    que permite definir uma estrutura de dados\r\n    com vrias propriedades e us-la em funes e contratos).*/\r\n    struct Member{\r\n        // carteira do cliente do contrato\r\n        address client; \r\n        //Imei do usurio tratado por hash\r\n        string _imei;\r\n         //Dinheiro do usurio\r\n        uint cash;\r\n        //uint pricePhone;\r\n    }\r\n    //Mapping \r\n    /*(Mapping  uma estrutura de\r\n    dados que associa uma chave\r\n    nica a um valor). */\r\n    /*esse maping associa uma carteira a um valor\r\n     inteiro e representa o saldo de cada carteira*/\r\n    mapping (address => uint256) public balances;\r\n    /*esse mamping associa uma carteira a um valor\r\n    inteiro e representa o valor solicitado em uma indenizao*/\r\n    mapping(address => uint256) private indemnityRequests;\r\n    /* esse mapping associa uma carteira a um valor booleano \r\n    e representa os membros ativos do contrato */\r\n    mapping(address => bool) public activeMembers;\r\n    /* esse mapping associa uma carteira ao valor \r\n    referente ao pagamento da taxa administrativa */\r\n    mapping(address => uint256) public administrativeFees;\r\n\r\n    // Eventos \r\n    /*(Eventos so notificaes emitidas durante\r\n     a execuo de um contrato para informar a \r\n     ocorrncia de uma determinada ao).*/\r\n    // Evento que registra quando o usurio fizer uma compra.\r\n    event Purchase(address _buyer, uint _amount); \r\n    // Evento que registra a adio de um novo membro no contrato. \r\n    event AddMember (address member); \r\n    // Evento que registra o recebimento de um pagamento. \r\n    event PaymentReceived(address member, uint amount);\r\n    // Evento que registra quando todos os pagamentos foram feitos. \r\n    event FinalAmount(uint finalValue); \r\n        // Modificador para verificar se quem chamou  o proprietrio\r\n    modifier isOwner() {\r\n        require(msg.sender == owner, \"Caller is not owner\");\r\n        _;\r\n    }\r\n    // Funes \"receive\" e \"fallback\" do solidity \r\n    /*Funo que  chamada quando o contrato \r\n    recebe um valor sem nenhum dado de transao anexado.*/\r\n    receive() external payable { \r\n    }\r\n    /* Funo que  chamada quando uma funo\r\n     invocada no existe ou se no for vlida. */\r\n    fallback() external payable { \r\n    }\r\n    function deposit() external payable {}\r\n    /*Funo especial que  executada apenas uma vez \r\n    quando o contrato  implantado na rede ethereum*/\r\n    // define que o administrador do contrato  quem fez deploy \r\n    constructor() {\r\n        owner = msg.sender; \r\n    }\r\n\r\n    // Funo que retorna a carteira do proprietrio.\r\n    function getOwner() external view returns (address) {\r\n        return owner;\r\n    }\r\n\r\n    // Funo para exibir todos os membros.\r\n    function showAllMembers() external view returns (address[] memory) { \r\n        return membersContract;\r\n    }\r\n\r\n    // // Funo para obter os reembolsos pendentes de usurios.\r\n    // function getPendingIndemnities() public isOwner view returns (address [] memory){\r\n    //     return userRequestingIndemnity;\r\n    // }\r\n\r\n    // Funo que retorna o valor do fundo\r\n    function getBalance() public view returns (uint) {\r\n        return address(this).balance;\r\n    }\r\n\r\n    // Funo para ver quantas pessoas h na carteira \r\n    function getTotalWalletClients() public view returns (uint) {\r\n        return userQuantity;\r\n    }\r\n\r\n    // Funo que adiciona um membro a lista de membros do contrato\r\n    // Essa funo atende aos seguintes requisitos:\r\n    // requisito 1: criao de um grupo de seguro mtuo\r\n    // requisito 4: gerenciamento do nmero de clientes na plataforma\r\n    function addMember(address user) public isOwner { \r\n        membersContract.push(user); \r\n        activeMembers[user] = true;\r\n        userQuantity = userQuantity + 1;\r\n        emit AddMember(msg.sender);\r\n    }\r\n\r\n    //Funo que remove um membro do grupo \r\n    // essa funo atende ao seguinte requisito:\r\n    // requisito 4: gerenciamento do nmero de clientes na plataforma\r\n    function removeMember(address userWallet) public isOwner {\r\n    for (uint i = 0; i < membersContract.length; i++) {\r\n        if (membersContract[i] == userWallet) {\r\n            for (uint index = i; index < membersContract.length - 1; index++) {\r\n                membersContract[index] = membersContract[index + 1];\r\n            }\r\n            membersContract.pop();\r\n            userQuantity = userQuantity - 1;\r\n            activeMembers[userWallet] = false;\r\n            return;\r\n        }\r\n    }\r\n}\r\n\r\n    // Funo para realizar o pagamento do contrato de seguro  \r\n    // Essa funo atende aos seguintes requisitos:\r\n    // requisito 2: cobrana de uma taxa administrativa no momento da contratao do seguro\r\n    // requisito 3: cobrana do valor referente ao pagamento do seguro mtuo.\r\n    function initialPayment(string memory imeiValue, address payable userWallet, uint insuredValue) external payable{\r\n        Member memory members = Member(userWallet, imeiValue, insuredValue);\r\n        uint256 depositUser = insuredValue - ((insuredValue * administrativeFee)/100);\r\n        balances[msg.sender] += msg.value;\r\n        payers.push(msg.sender);\r\n        emit Purchase(msg.sender, insuredValue);\r\n        emit PaymentReceived(msg.sender, msg.value);\r\n        emit FinalAmount(depositUser);\r\n    }\r\n\r\n    \r\n    /* Essa funo verifica de quem solicitou a indenizao est no contrato\r\n    e adiciona sua carteira a uma lista de solicitantes */\r\n    // **** Essa funo demanda gs para ser executada\r\n    //Essa funo atende ao seguinte requisito:\r\n    //Requisito 5: realizao de um pedido de indenizao\r\n    function requestIndemnity(uint256 _value) external {\r\n        require(activeMembers[msg.sender], \"Member is not active\");\r\n        // require(balances[msg.sender] >= _value, \"Insufficient funds\");\r\n        require(!statusIndemnity, \"Indemnity already requested\");\r\n        indemnityRequests[msg.sender] = _value;\r\n        statusIndemnity = true;\r\n        userRequestingIndemnity.push(msg.sender);\r\n    }\r\n\r\n    // Funo voltada para o pagamento da indenizao solicitada\r\n    // essa funo atende ao seguint256e requisito: \r\n    // requisito 6: aprovao dos pedidos de indenizao\r\n    // Funo para aprovao de indenizao\r\n    function approveIndemnity(address payable _memberRequesting, uint _amount) public isOwner{\r\n        require(statusIndemnity == true, \"Indemnity not requested\");\r\n        (bool success, ) = _memberRequesting.call{value: _amount}(\"\");\r\n        require(success, \"Failed to send Ether\");\r\n        statusIndemnity = false;\r\n    }\r\n\r\n    // // Function to transfer Ether from this contract to address from input\r\n    // function transfer(address payable _to, uint _amount) public {\r\n    //     require(1 == 1, \"Indemnity not requested\");\r\n    //     // require(getBalance() >= indemnityRequests[userRequestingIndemnity[0]], \"Insufficient funds\");\r\n    //     (bool success, ) = _to.call{value: _amount}(\"\");\r\n    //     require(success, \"Failed to send Ether\");\r\n    //     // statusIndemnity = false;\r\n    // }\r\n\r\n    /*Funo que verifica a integridade da reserva de risco e\r\n    em caso de comprometimento dessa, solicita sua reposio aos \r\n    membros do contrato */\r\n    // essa funo atende ao seguinte requisito\r\n    // requisito 7: reposio da reserva de risco\r\n    // function riskReserveRefund() public payable{\r\n    //     reposition = indemnity/userQuantity;\r\n    //     //funo que permite a reposio da reserva de risco e garante que todos os membros a paguem \r\n    //     require(msg.value == reposition, \"Valor devido incorreto.\");\r\n    //     // adiciona as carteiras dos membros que pagaram a um array de pagantes\r\n    //     payers.push(msg.sender);\r\n    //     // verifica se todos pagaram e muda o status da variavel de solicitao da indenizao em caso positivo\r\n    //     if (payers.length == userQuantity) {\r\n    //         statusIndemnity = false;\r\n    //     }\r\n    // }\r\n\r\n}\r\n",
  "sourcePath": "C:\\Users\\Inteli\\Projeto1\\contracts\\contractCore.sol",
  "compiler": {
    "name": "solc",
    "version": "0.8.18+commit.87f61d96.Emscripten.clang"
  },
  "schemaVersion": "3.4.11",
  "updatedAt": "2023-04-05T22:13:16.824Z",
  "networkType": "ethereum",
  "devdoc": {
    "kind": "dev",
    "methods": {},
    "version": 1
  },
  "userdoc": {
    "kind": "user",
    "methods": {},
    "version": 1
  }
}