{
  "contractName": "Owner",
  "abi": [
    {
      "inputs": [],
      "stateMutability": "nonpayable",
      "type": "constructor"
    },
    {
      "anonymous": false,
      "inputs": [
        {
          "indexed": false,
          "internalType": "address",
          "name": "member",
          "type": "address"
        }
      ],
      "name": "AddMember",
      "type": "event"
    },
    {
      "anonymous": false,
      "inputs": [
        {
          "indexed": false,
          "internalType": "uint256",
          "name": "finalValue",
          "type": "uint256"
        }
      ],
      "name": "FinalAmount",
      "type": "event"
    },
    {
      "anonymous": false,
      "inputs": [
        {
          "indexed": false,
          "internalType": "address",
          "name": "member",
          "type": "address"
        },
        {
          "indexed": false,
          "internalType": "uint256",
          "name": "amount",
          "type": "uint256"
        }
      ],
      "name": "PaymentReceived",
      "type": "event"
    },
    {
      "anonymous": false,
      "inputs": [
        {
          "indexed": false,
          "internalType": "address",
          "name": "_buyer",
          "type": "address"
        },
        {
          "indexed": false,
          "internalType": "uint256",
          "name": "_amount",
          "type": "uint256"
        }
      ],
      "name": "Purchase",
      "type": "event"
    },
    {
      "stateMutability": "payable",
      "type": "fallback",
      "payable": true
    },
    {
      "inputs": [
        {
          "internalType": "address",
          "name": "",
          "type": "address"
        }
      ],
      "name": "activeMembers",
      "outputs": [
        {
          "internalType": "bool",
          "name": "",
          "type": "bool"
        }
      ],
      "stateMutability": "view",
      "type": "function",
      "constant": true
    },
    {
      "inputs": [],
      "name": "amountContract",
      "outputs": [
        {
          "internalType": "uint256",
          "name": "",
          "type": "uint256"
        }
      ],
      "stateMutability": "view",
      "type": "function",
      "constant": true
    },
    {
      "inputs": [
        {
          "internalType": "address",
          "name": "",
          "type": "address"
        }
      ],
      "name": "balances",
      "outputs": [
        {
          "internalType": "uint256",
          "name": "",
          "type": "uint256"
        }
      ],
      "stateMutability": "view",
      "type": "function",
      "constant": true
    },
    {
      "inputs": [],
      "name": "indemnity",
      "outputs": [
        {
          "internalType": "uint256",
          "name": "",
          "type": "uint256"
        }
      ],
      "stateMutability": "view",
      "type": "function",
      "constant": true
    },
    {
      "inputs": [
        {
          "internalType": "address",
          "name": "",
          "type": "address"
        }
      ],
      "name": "members",
      "outputs": [
        {
          "internalType": "uint256",
          "name": "cash",
          "type": "uint256"
        },
        {
          "internalType": "address",
          "name": "client",
          "type": "address"
        }
      ],
      "stateMutability": "view",
      "type": "function",
      "constant": true
    },
    {
      "inputs": [
        {
          "internalType": "uint256",
          "name": "",
          "type": "uint256"
        }
      ],
      "name": "membersContract",
      "outputs": [
        {
          "internalType": "address",
          "name": "",
          "type": "address"
        }
      ],
      "stateMutability": "view",
      "type": "function",
      "constant": true
    },
    {
      "inputs": [],
      "name": "owner",
      "outputs": [
        {
          "internalType": "address",
          "name": "",
          "type": "address"
        }
      ],
      "stateMutability": "view",
      "type": "function",
      "constant": true
    },
    {
      "inputs": [
        {
          "internalType": "uint256",
          "name": "",
          "type": "uint256"
        }
      ],
      "name": "payers",
      "outputs": [
        {
          "internalType": "address",
          "name": "",
          "type": "address"
        }
      ],
      "stateMutability": "view",
      "type": "function",
      "constant": true
    },
    {
      "inputs": [],
      "name": "reposition",
      "outputs": [
        {
          "internalType": "uint256",
          "name": "",
          "type": "uint256"
        }
      ],
      "stateMutability": "view",
      "type": "function",
      "constant": true
    },
    {
      "inputs": [],
      "name": "statusIndemnity",
      "outputs": [
        {
          "internalType": "bool",
          "name": "",
          "type": "bool"
        }
      ],
      "stateMutability": "view",
      "type": "function",
      "constant": true
    },
    {
      "inputs": [],
      "name": "userQuantity",
      "outputs": [
        {
          "internalType": "uint256",
          "name": "",
          "type": "uint256"
        }
      ],
      "stateMutability": "view",
      "type": "function",
      "constant": true
    },
    {
      "stateMutability": "payable",
      "type": "receive",
      "payable": true
    },
    {
      "inputs": [],
      "name": "addMoney",
      "outputs": [],
      "stateMutability": "payable",
      "type": "function",
      "payable": true
    },
    {
      "inputs": [],
      "name": "getOwner",
      "outputs": [
        {
          "internalType": "address",
          "name": "",
          "type": "address"
        }
      ],
      "stateMutability": "view",
      "type": "function",
      "constant": true
    },
    {
      "inputs": [],
      "name": "showAllMembers",
      "outputs": [
        {
          "internalType": "address[]",
          "name": "",
          "type": "address[]"
        }
      ],
      "stateMutability": "view",
      "type": "function",
      "constant": true
    },
    {
      "inputs": [],
      "name": "getPendingRefunds",
      "outputs": [
        {
          "internalType": "address[]",
          "name": "",
          "type": "address[]"
        }
      ],
      "stateMutability": "view",
      "type": "function",
      "constant": true
    },
    {
      "inputs": [
        {
          "internalType": "address",
          "name": "user",
          "type": "address"
        }
      ],
      "name": "addMember",
      "outputs": [],
      "stateMutability": "nonpayable",
      "type": "function"
    },
    {
      "inputs": [],
      "name": "getBalance",
      "outputs": [
        {
          "internalType": "uint256",
          "name": "",
          "type": "uint256"
        }
      ],
      "stateMutability": "view",
      "type": "function",
      "constant": true
    },
    {
      "inputs": [
        {
          "internalType": "address",
          "name": "userMakingRequest",
          "type": "address"
        }
      ],
      "name": "userRequestingPayment",
      "outputs": [],
      "stateMutability": "nonpayable",
      "type": "function"
    },
    {
      "inputs": [
        {
          "internalType": "address",
          "name": "membersWallet",
          "type": "address"
        },
        {
          "internalType": "uint256",
          "name": "amount",
          "type": "uint256"
        }
      ],
      "name": "payRefund",
      "outputs": [],
      "stateMutability": "nonpayable",
      "type": "function"
    },
    {
      "inputs": [],
      "name": "quantClientsWallet",
      "outputs": [
        {
          "internalType": "uint256",
          "name": "",
          "type": "uint256"
        }
      ],
      "stateMutability": "view",
      "type": "function",
      "constant": true
    },
    {
      "inputs": [
        {
          "internalType": "address",
          "name": "userWallet",
          "type": "address"
        }
      ],
      "name": "removeUser",
      "outputs": [],
      "stateMutability": "nonpayable",
      "type": "function"
    },
    {
      "inputs": [],
      "name": "riskReserve",
      "outputs": [],
      "stateMutability": "payable",
      "type": "function",
      "payable": true
    }
  ],
  "bytecode": "0x608060405260008060146101000a81548160ff02191690831515021790555061002c61008160201b60201c565b600b5534801561003b57600080fd5b50336000806101000a81548173ffffffffffffffffffffffffffffffffffffffff021916908373ffffffffffffffffffffffffffffffffffffffff160217905550610089565b600047905090565b6118b3806100986000396000f3fe6080604052600436106101395760003560e01c80635d3694b9116100ab578063985751881161006f57806398575188146103f7578063abc3ef7a14610420578063ca6d56dc1461044b578063d3b49fce14610474578063e10f1f181461049d578063fa9157a8146104c857610140565b80635d3694b9146103105780635db20cb31461034d57806373b08ce714610376578063893d20e8146103a15780638da5cb5b146103cc57610140565b806327e235e3116100fd57806327e235e31461020b5780633048585e146102485780633ccfbd031461027357806344c5999e146102b057806348bd73a5146102ba5780634e41c676146102e557610140565b806308ae4b0c146101425780630e49b3a31461018057806312065fe0146101ab57806319fc121f146101d65780631b3f48421461020157610140565b3661014057005b005b34801561014e57600080fd5b5061016960048036038101906101649190611229565b610505565b60405161017792919061127e565b60405180910390f35b34801561018c57600080fd5b50610195610549565b6040516101a291906112a7565b60405180910390f35b3480156101b757600080fd5b506101c061054f565b6040516101cd91906112a7565b60405180910390f35b3480156101e257600080fd5b506101eb610557565b6040516101f89190611380565b60405180910390f35b610209610673565b005b34801561021757600080fd5b50610232600480360381019061022d9190611229565b6107aa565b60405161023f91906112a7565b60405180910390f35b34801561025457600080fd5b5061025d6107c2565b60405161026a91906112a7565b60405180910390f35b34801561027f57600080fd5b5061029a600480360381019061029591906113ce565b6107c8565b6040516102a791906113fb565b60405180910390f35b6102b8610807565b005b3480156102c657600080fd5b506102cf610948565b6040516102dc91906112a7565b60405180910390f35b3480156102f157600080fd5b506102fa61094e565b60405161030791906112a7565b60405180910390f35b34801561031c57600080fd5b5061033760048036038101906103329190611229565b610954565b6040516103449190611431565b60405180910390f35b34801561035957600080fd5b50610374600480360381019061036f919061144c565b610974565b005b34801561038257600080fd5b5061038b610b51565b60405161039891906112a7565b60405180910390f35b3480156103ad57600080fd5b506103b6610b63565b6040516103c391906113fb565b60405180910390f35b3480156103d857600080fd5b506103e1610b8c565b6040516103ee91906113fb565b60405180910390f35b34801561040357600080fd5b5061041e60048036038101906104199190611229565b610bb0565b005b34801561042c57600080fd5b50610435610e5c565b6040516104429190611380565b60405180910390f35b34801561045757600080fd5b50610472600480360381019061046d9190611229565b610eea565b005b34801561048057600080fd5b5061049b60048036038101906104969190611229565b61106d565b005b3480156104a957600080fd5b506104b2611174565b6040516104bf9190611431565b60405180910390f35b3480156104d457600080fd5b506104ef60048036038101906104ea91906113ce565b611187565b6040516104fc91906113fb565b60405180910390f35b60046020528060005260406000206000915090508060000154908060010160009054906101000a900473ffffffffffffffffffffffffffffffffffffffff16905082565b60025481565b600047905090565b606060008054906101000a900473ffffffffffffffffffffffffffffffffffffffff1673ffffffffffffffffffffffffffffffffffffffff163373ffffffffffffffffffffffffffffffffffffffff16146105e7576040517f08c379a00000000000000000000000000000000000000000000000000000000081526004016105de906114e9565b60405180910390fd5b600a80548060200260200160405190810160405280929190818152602001828054801561066957602002820191906000526020600020905b8160009054906101000a900473ffffffffffffffffffffffffffffffffffffffff1673ffffffffffffffffffffffffffffffffffffffff168152602001906001019080831161061f575b5050505050905090565b600060059050600034905060006064838361068e9190611538565b61069891906115a9565b826106a391906115da565b905034600560003373ffffffffffffffffffffffffffffffffffffffff1673ffffffffffffffffffffffffffffffffffffffff16815260200190815260200160002060008282546106f4919061160e565b925050819055507f2499a5330ab0979cc612135e7883ebc3cd5c9f7a8508f042540c34723348f63233600160405161072d929190611687565b60405180910390a17f6ef95f06320e7a25a04a175ca677b7052bdd97131872c2192525a629f51be77033346040516107669291906116b0565b60405180910390a17ff0ba619e6cf026fd42432537f1d45559f7401ec1a940be78c5dbb4caa6aa3a3d8160405161079d91906112a7565b60405180910390a1505050565b60056020528060005260406000206000915090505481565b60015481565b600981815481106107d857600080fd5b906000526020600020016000915054906101000a900473ffffffffffffffffffffffffffffffffffffffff1681565b6001600060146101000a81548160ff0219169083151502179055610860576040517f08c379a00000000000000000000000000000000000000000000000000000000081526004016108579061174b565b60405180910390fd5b60025460035461087091906115a9565b60018190555060015434146108ba576040517f08c379a00000000000000000000000000000000000000000000000000000000081526004016108b1906117b7565b60405180910390fd5b6009339080600181540180825580915050600190039060005260206000200160009091909190916101000a81548173ffffffffffffffffffffffffffffffffffffffff021916908373ffffffffffffffffffffffffffffffffffffffff160217905550600254600980549050036109465760008060146101000a81548160ff0219169083151502179055505b565b60035481565b600b5481565b60076020528060005260406000206000915054906101000a900460ff1681565b60008054906101000a900473ffffffffffffffffffffffffffffffffffffffff1673ffffffffffffffffffffffffffffffffffffffff163373ffffffffffffffffffffffffffffffffffffffff1614610a02576040517f08c379a00000000000000000000000000000000000000000000000000000000081526004016109f9906114e9565b60405180910390fd5b600b548110610a1057600080fd5b60005b600a80549050811015610b4c578273ffffffffffffffffffffffffffffffffffffffff16600a8281548110610a4b57610a4a6117d7565b5b9060005260206000200160009054906101000a900473ffffffffffffffffffffffffffffffffffffffff1673ffffffffffffffffffffffffffffffffffffffff1603610b38578273ffffffffffffffffffffffffffffffffffffffff166108fc839081150290604051600060405180830381858888f19350505050158015610ad7573d6000803e3d6000fd5b50600a805480610aea57610ae9611806565b5b6001900381819060005260206000200160006101000a81549073ffffffffffffffffffffffffffffffffffffffff0219169055905581600b54610b2d91906115da565b600b81905550610b39565b5b8080610b4490611835565b915050610a13565b505050565b60008060088054905090508091505090565b60008060009054906101000a900473ffffffffffffffffffffffffffffffffffffffff16905090565b60008054906101000a900473ffffffffffffffffffffffffffffffffffffffff1681565b60008054906101000a900473ffffffffffffffffffffffffffffffffffffffff1673ffffffffffffffffffffffffffffffffffffffff163373ffffffffffffffffffffffffffffffffffffffff1614610c3e576040517f08c379a0000000000000000000000000000000000000000000000000000000008152600401610c35906114e9565b60405180910390fd5b60005b6001600880549050610c5391906115da565b811015610db9578173ffffffffffffffffffffffffffffffffffffffff1660088281548110610c8557610c846117d7565b5b9060005260206000200160009054906101000a900473ffffffffffffffffffffffffffffffffffffffff1673ffffffffffffffffffffffffffffffffffffffff1603610da65760008190505b6001600880549050610ce391906115da565b821015610da4576008600182610cf9919061160e565b81548110610d0a57610d096117d7565b5b9060005260206000200160009054906101000a900473ffffffffffffffffffffffffffffffffffffffff1660088281548110610d4957610d486117d7565b5b9060005260206000200160006101000a81548173ffffffffffffffffffffffffffffffffffffffff021916908373ffffffffffffffffffffffffffffffffffffffff1602179055508080610d9c90611835565b915050610cd1565b505b8080610db190611835565b915050610c41565b506000600760008373ffffffffffffffffffffffffffffffffffffffff1673ffffffffffffffffffffffffffffffffffffffff16815260200190815260200160002060006101000a81548160ff0219169083151502179055506008805480610e2457610e23611806565b5b6001900381819060005260206000200160006101000a81549073ffffffffffffffffffffffffffffffffffffffff0219169055905550565b60606008805480602002602001604051908101604052809291908181526020018280548015610ee057602002820191906000526020600020905b8160009054906101000a900473ffffffffffffffffffffffffffffffffffffffff1673ffffffffffffffffffffffffffffffffffffffff1681526020019060010190808311610e96575b5050505050905090565b60008054906101000a900473ffffffffffffffffffffffffffffffffffffffff1673ffffffffffffffffffffffffffffffffffffffff163373ffffffffffffffffffffffffffffffffffffffff1614610f78576040517f08c379a0000000000000000000000000000000000000000000000000000000008152600401610f6f906114e9565b60405180910390fd5b6008819080600181540180825580915050600190039060005260206000200160009091909190916101000a81548173ffffffffffffffffffffffffffffffffffffffff021916908373ffffffffffffffffffffffffffffffffffffffff1602179055506001600760008373ffffffffffffffffffffffffffffffffffffffff1673ffffffffffffffffffffffffffffffffffffffff16815260200190815260200160002060006101000a81548160ff0219169083151502179055507f1a2323d99020f3db8e6ea85b1eea81e5bf422695877228e3d8a0241d7e957a6c3360405161106291906113fb565b60405180910390a150565b60005b60088054905081101561116f578173ffffffffffffffffffffffffffffffffffffffff16600882815481106110a8576110a76117d7565b5b9060005260206000200160009054906101000a900473ffffffffffffffffffffffffffffffffffffffff1673ffffffffffffffffffffffffffffffffffffffff160361115657600a829080600181540180825580915050600190039060005260206000200160009091909190916101000a81548173ffffffffffffffffffffffffffffffffffffffff021916908373ffffffffffffffffffffffffffffffffffffffff16021790555061115c565b50611171565b808061116790611835565b915050611070565b505b50565b600060149054906101000a900460ff1681565b6008818154811061119757600080fd5b906000526020600020016000915054906101000a900473ffffffffffffffffffffffffffffffffffffffff1681565b600080fd5b600073ffffffffffffffffffffffffffffffffffffffff82169050919050565b60006111f6826111cb565b9050919050565b611206816111eb565b811461121157600080fd5b50565b600081359050611223816111fd565b92915050565b60006020828403121561123f5761123e6111c6565b5b600061124d84828501611214565b91505092915050565b6000819050919050565b61126981611256565b82525050565b611278816111eb565b82525050565b60006040820190506112936000830185611260565b6112a0602083018461126f565b9392505050565b60006020820190506112bc6000830184611260565b92915050565b600081519050919050565b600082825260208201905092915050565b6000819050602082019050919050565b6112f7816111eb565b82525050565b600061130983836112ee565b60208301905092915050565b6000602082019050919050565b600061132d826112c2565b61133781856112cd565b9350611342836112de565b8060005b8381101561137357815161135a88826112fd565b975061136583611315565b925050600181019050611346565b5085935050505092915050565b6000602082019050818103600083015261139a8184611322565b905092915050565b6113ab81611256565b81146113b657600080fd5b50565b6000813590506113c8816113a2565b92915050565b6000602082840312156113e4576113e36111c6565b5b60006113f2848285016113b9565b91505092915050565b6000602082019050611410600083018461126f565b92915050565b60008115159050919050565b61142b81611416565b82525050565b60006020820190506114466000830184611422565b92915050565b60008060408385031215611463576114626111c6565b5b600061147185828601611214565b9250506020611482858286016113b9565b9150509250929050565b600082825260208201905092915050565b7f43616c6c6572206973206e6f74206f776e657200000000000000000000000000600082015250565b60006114d360138361148c565b91506114de8261149d565b602082019050919050565b60006020820190508181036000830152611502816114c6565b9050919050565b7f4e487b7100000000000000000000000000000000000000000000000000000000600052601160045260246000fd5b600061154382611256565b915061154e83611256565b925082820261155c81611256565b9150828204841483151761157357611572611509565b5b5092915050565b7f4e487b7100000000000000000000000000000000000000000000000000000000600052601260045260246000fd5b60006115b482611256565b91506115bf83611256565b9250826115cf576115ce61157a565b5b828204905092915050565b60006115e582611256565b91506115f083611256565b925082820390508181111561160857611607611509565b5b92915050565b600061161982611256565b915061162483611256565b925082820190508082111561163c5761163b611509565b5b92915050565b6000819050919050565b6000819050919050565b600061167161166c61166784611642565b61164c565b611256565b9050919050565b61168181611656565b82525050565b600060408201905061169c600083018561126f565b6116a96020830184611678565b9392505050565b60006040820190506116c5600083018561126f565b6116d26020830184611260565b9392505050565b7f41207265736572766120646520726973636f206e616f20666f6920636f6d707260008201527f6f6d65746964612e000000000000000000000000000000000000000000000000602082015250565b600061173560288361148c565b9150611740826116d9565b604082019050919050565b6000602082019050818103600083015261176481611728565b9050919050565b7f56616c6f722064657669646f20696e636f727265746f2e000000000000000000600082015250565b60006117a160178361148c565b91506117ac8261176b565b602082019050919050565b600060208201905081810360008301526117d081611794565b9050919050565b7f4e487b7100000000000000000000000000000000000000000000000000000000600052603260045260246000fd5b7f4e487b7100000000000000000000000000000000000000000000000000000000600052603160045260246000fd5b600061184082611256565b91507fffffffffffffffffffffffffffffffffffffffffffffffffffffffffffffffff820361187257611871611509565b5b60018201905091905056fea2646970667358221220ab6afc85710396f3d54e14b4c28e65a511c5d05f699ecb5b01aab13de3a9915664736f6c63430008130033",
  "immutableReferences": {},
  "source": "// SPDX-License-Identifier: MIT\r\npragma solidity >=0.7.0 <0.9.0;\r\n\r\n\r\ncontract Owner {\r\n    // Variaveis de estado\r\n    address public owner;\r\n    bool public statusIndemnity = false;\r\n    uint public reposition;\r\n    uint public userQuantity; \r\n    uint public indemnity;\r\n\r\n\r\n\r\n    // modificador para verificar se quem chamou  o proprietrio\r\n    modifier isOwner() {\r\n     \r\n        require(msg.sender == owner, \"Caller is not owner\");\r\n        _;\r\n    }\r\n\r\n\r\n    // **************** Pesquisar o que fazem essas funes e preencher\r\n    receive() external payable {}\r\n\r\n    fallback() external payable {\r\n    }\r\n\r\n\r\n    // ************ Explicar o que cada evento faz brevemente \r\n    event Purchase(\r\n        address _buyer,\r\n        uint _amount\r\n    );\r\n\r\n    event AddMember (address member);\r\n    event PaymentReceived(address member, uint amount);\r\n    event FinalAmount(uint finalValue);\r\n\r\n    // **** Explicar o que  um struct e pra que serve\r\n    struct Member{\r\n        uint cash; //Dinheiro do user\r\n        address client; //Cliente do contrato\r\n    }\r\n\r\n\r\n    // ********** Pesquisar pra que serve um mapping \r\n    // Mapping so tabelas hash em solidity, aqui  possivel criar uma associao chave-> valor, vai ser bem util\r\n    //Nenhum valor esta sendo adicionado nesse mapping\r\n    mapping (address => Member) public members;\r\n    \r\n    mapping (address => uint256) public balances;\r\n    mapping(address => uint256) private indemnityRequests;\r\n    mapping(address => bool) public activeMembers;\r\n\r\n\r\n    // ********** Array com informaes\r\n    // ********** Buscar entender onde que essas arrays so usadas e como atendem as user stories \r\n    address [] public membersContract ;\r\n    address[] public payers;\r\n\r\n    address [] private userRequestingRefund;\r\n\r\n\r\n\r\n    // Variaveis de estado\r\n    uint public amountContract = getBalance(); // valor que est presente no Contrato (isso  respectivo de cada grupo)\r\n\r\n\r\n    address payable private _admin;\r\n\r\n    constructor() {\r\n        owner = msg.sender; \r\n    }   \r\n\r\n\r\n    // Funo para pagar e entrar no contrato \r\n    // ******** Melhorar o nome da funo, variaveis e checar logca    \r\n    function addMoney() public payable{\r\n        uint admTax = 5;\r\n        uint deposit = msg.value;\r\n        uint payUser = deposit - (deposit * admTax/100);\r\n        balances[msg.sender] += msg.value;\r\n\r\n        emit Purchase(msg.sender, 1);\r\n        emit PaymentReceived(msg.sender, msg.value);\r\n        emit FinalAmount (payUser);\r\n        \r\n    }\r\n\r\n \r\n    function getOwner() external view returns (address) {\r\n        return owner;\r\n    }\r\n    function showAllMembers() external view returns (address[] memory) {\r\n        return membersContract;\r\n    }\r\n\r\n    function getPendingRefunds() public isOwner view returns (address [] memory){\r\n        return userRequestingRefund;\r\n    }\r\n\r\n\r\n\r\n    function addMember(address user) public isOwner {\r\n        membersContract.push(user);\r\n        activeMembers[user] = true;\r\n        emit AddMember(msg.sender);\r\n    }\r\n\r\n    // Funo que retorna o valor do fundo\r\n    function getBalance() public view returns (uint) {\r\n        return address(this).balance;\r\n    }\r\n\r\n    // Ver se quem pediu a indenizao esta dentro ou no do grupo e adicionando sua carteira numa lista com os usuarios que pediram o pagamento\r\n    // **** Essa funo demanda gs para ser executada\r\n    function userRequestingPayment (address userMakingRequest) public {\r\n        for( uint i = 0; i < membersContract.length; i++){\r\n            if (membersContract[i] == userMakingRequest){\r\n                userRequestingRefund.push(userMakingRequest);\r\n            }\r\n            else{\r\n                return ;\r\n            }\r\n        }\r\n    }\r\n\r\n\r\n    // Funo que permite que s o dono envie dinheiro \r\n    function payRefund(address membersWallet, uint amount) public isOwner{\r\n        require(amount < amountContract);\r\n        // Condicional para verificar se o input que requiriu o pagamento j est na lista de usuarios que pediram um reembolso\r\n        // ********** Convem ver se h como fazer uma funo que retorne um booleano ao invs de executar vrios loops \r\n            for( uint i = 0; i < userRequestingRefund.length; i++){\r\n            if (userRequestingRefund[i] == membersWallet){\r\n                payable(membersWallet).transfer(amount);\r\n                userRequestingRefund.pop();\r\n                amountContract = amountContract - amount ;\r\n            }\r\n            else{\r\n                \r\n            }\r\n        }\r\n    }\r\n\r\n\r\n\r\n    // Funo para ver quantas pessoas h na carteira \r\n    // **************** Escrever melhor o nome das funes \r\n    function quantClientsWallet() public view returns(uint) {\r\n        uint usersAmount = membersContract.length;\r\n        return usersAmount;\r\n    }\r\n\r\n\r\n    // ********* Funo que remove os usuarios do grupo \r\n    function removeUser(address userWallet) public isOwner {\r\n        \r\n        for (uint i = 0; i < membersContract.length - 1; i++ ){\r\n            if (membersContract[i] == userWallet){\r\n                for ( uint index = i; i < membersContract.length - 1; index++){\r\n                    membersContract[index] = membersContract[index + 1];\r\n                }\r\n            }\r\n\r\n        }\r\n        // Caso o usuario seja removido ele  automaticamente retirado da lista de pendencias a pagar\r\n        // userRequestingRefund.pop();\r\n        activeMembers[userWallet] = false;\r\n        membersContract.pop();\r\n        return ;\r\n    }\r\n\r\n\r\n        function riskReserve() public payable{\r\n        require(statusIndemnity = true, \"A reserva de risco nao foi comprometida.\");\r\n         //funo que permite a reposio da reserva de risco e garante que todos os membros a paguem \r\n        reposition = indemnity/userQuantity;\r\n        require(msg.value == reposition, \"Valor devido incorreto.\");\r\n        payers.push(msg.sender);\r\n        if (payers.length == userQuantity) {\r\n            statusIndemnity = false;\r\n        }\r\n    }\r\n\r\n}",
  "sourcePath": "C:\\Users\\eduar\\OneDrive\\Documentos\\G1 - SI - MODULO 5\\Projeto1\\contracts\\contractCore.sol",
  "compiler": {
    "name": "solc",
    "version": "0.8.19+commit.7dd6d404.Emscripten.clang"
  },
  "schemaVersion": "3.4.13",
  "updatedAt": "2023-03-10T16:30:27.843Z",
  "networkType": "ethereum",
  "devdoc": {
    "kind": "dev",
    "methods": {},
    "version": 1
  },
  "userdoc": {
    "kind": "user",
    "methods": {},
    "version": 1
  }
}